:020000040000FA
:0600000002123A0207A4FF
:03002B000210714F
:03003300020DF1CA
:03004300020F0D9C
:030053000206D5CD
:03006B00020DD7AC
:100083000207390101FF01010503010F10FEFFA261
:100093001AA21AA21AA21A5E195819A21AF527004F
:1000A300000000B928000000000C0000000C000153
:1000B300FFFF3250C30102006705000000DA056448
:1000C30000020200080000050207051E02051E02C9
:1000D3000A0A03B80B02803E0102F1FF149651187D
:1000E3000002020630313233343536373839414273
:1000F3004344454600286E756C6C20706F696E74BE
:10010300657229003F3F3F000000807F0000803F71
:10011300F9021550B743BA510000204100E7DB2E26
:100123000000A04010000000080000000A000000CA
:100133001212866046121259603DE9687008F6187B
:10014300F618F618F622748067F712016709090991
:10015300748067F722121259601D121286700519F6
:100163001919801A12110D701F121122C37003E6A0
:10017300673319191940071818182208080874FF5B
:10018300F618F618F618F62212112260171212C585
:10019300702192F01212CF7019501720F014080832
:1001A30008090909E7F61819E7F61819E7F61819FF
:1001B300E7F6221212CF60E6E869701F0808E6240A
:1001C30080F608E436F618547FB47F0CE65480605A
:1001D30007F6E418F618F622181822E9C6CC08C662
:1001E300CD08C6CE08C6CFC0E0E8C0E0EAC0E0EB69
:1001F300C0E009E9F809E7FA09E7FBE6F918E6F8C8
:10020300C3EC98ED99EE9AEBC2E7F5F0EFC2E795F0
:10021300F0500E600CEBCFFBEACEFAE9CDF9E8CC57
:10022300F8EAA2E7D2E7FAEB33FB13F5F0EEA2E725
:10023300D2E7FEEF33FFC5F013A2E730E601B313B5
:10024300C5F0C3C0E0C0F07F00C39BFB605B9418A4
:10025300600C401AD0E023F9D0E0F80203368AF0AC
:10026300E9486003D2F0E4AFF0FAF9F8803BEB30F1
:10027300E40D89F0EA6003D2F0E4AFF0F9CAF8EBD9
:1002830030E30D88F0EF6002D2F0AFF0E4CAC9F8B2
:10029300EB54076014FBC3EA13FAE913F9E813F804
:1002A300EF135002D2E0FFDBEDD0E0C0E030E739DE
:1002B300C3E49FFFF5F0EC98FC42F0ED99FD42F0AA
:1002C300EE9AFE42F0D0E0F9D0E0F8E5F0607AE98A
:1002D30023F9EE20E742D8028067C3EF33FFEC3304
:1002E300FCED33FDEE33FE80EAEC28FCED39FDEE48
:1002F3003AFED0E023F9D0E0F84002801BC3EE13AE
:10030300FEED13FDEC13FCEF135002D2E0FF08B82F
:1003130000067F7F74FF802EEF3350178CF020F0A0
:100323000260100CBC000C0DBD00080EBE000408DA
:10033300E860DFE933E813FFEE2313FE4F4D4C80F3
:1003430008E95480FFE4FEFDFCEE33EF33F4700460
:10035300FCFD7E80D0E0FBD0E0FAD0E0F8D0E0CF27
:10036300C618CEC618CDC618CCC6F92212125970BB
:100373000418181822121286700D74FFF61819F655
:100383001819F61819F622E7548066F61212CF7080
:100393000F1212C570F014F608F608F608F680D1AD
:1003A3001212C5700CF608F608768008E6447F80C2
:1003B300EC121125700C12111060BFE65480F6E4A4
:1003C30080BB121110700519191980A5E869700C0A
:1003D300763F18768018F618F6E8F922E6CDC0E0E5
:1003E30018ECC0E0E633CD33CDD313F6E719FCE7C1
:1003F300191933CC33C3947F400ECD9D502408E6A6
:100403005480F6E418F6800FF4043D14501408E603
:10041300447FF6187680E418F618F6D0E0FCD0E0B6
:10042300FD22CCD313CCFD18E4C6CBC0E018E4C640
:10043300CAC0E00808ED08C633E613F618E433C66D
:1004430075F003C3CA97CA09CB97CB199C40047DA7
:1004530008802EBD000302051816B6FF0506060820
:100463001618C3CA33CACB33CB33CA27CA09CB370F
:10047300CB193CC37D08803E187D0820E75CC6335A
:10048300C6CA33CACB33CB33DDF1D5F0EB30E77BD0
:10049300CA97CA09CB974ACB199C406F4B7025E684
:1004A30020E0218066187D08C3CA97CA09CB97CB81
:1004B300199CD3C633C6CA33CACB33CB3350C9DD39
:1004C300E7D5F0E1D3E4C636C608C636C608C63655
:1004D300C608C636C61818188031C3CA97CA09CBCE
:1004E30097CB199CB34097C633C6CA33CACB33CB19
:1004F30033DD34D5F02EC6A2E0C640C8CA27CA09E8
:10050300CB37194A70BECB3CB480B90808E6330830
:10051300E633601F181818D0E0FAD0E0FBD0E0FCF7
:10052300D0E0FD22187D08CA27CA09CB37CB193C76
:10053300D3808013F618E4B67F11F618B6FF0EF6D3
:1005430018C60470D20808768080CAF618F618F622
:1005530080C500121259604F1212866012E7548050
:1005630066F612110D70111212C5703B090909F4D8
:10057300F618F618F618F62212112270151212CF79
:1005830008080860EAE6447FF618768018E4F6184F
:10059300F6221212CF60161212C57012E4F608F694
:1005A30008F608E65480F609090918181822EAC063
:1005B300E0EBC0E0ECC0E0EDC0E0E687F0A4FBAC0C
:1005C300F008E687F0A42CFCE435F0FA1809E68776
:1005D300F0A42C4B60027401CA35F0FCE433FB0930
:1005E300E687F0D2F7A42CCB35F0FC1908E687F0A8
:1005F300A42BCC35F0FBE433FD0819E687F0D2E7F2
:10060300A42C4ACB35F0CD3400FC09E687F0D2E7C1
:10061300A42DCC35F0FDE433FA0918E687F0D2F7C0
:10062300A42CCD35F0CA3400FC08E687F0D2E7D21B
:10063300F7A42ACC35F07A7E20E70B0ACB33CBCD57
:1006430033CDCC33CC33CB3350147004ED30E00EC8
:10065300D2F1E4CD3DCDCC3CCC3B5005DA05C2F123
:10066300EB547FC63308E63392F0FBE73309E733F5
:10067300C39A502D2B70190C0D4C4D70151806E6AE
:1006830008C333700D20F10AA2F013F6E418800BAF
:100693004024E4F630F002768018F618F618F68057
:1006A30024D33B14501074FFA2F013F6187680E4A1
:1006B30018F618F6800FA2F013F618E63303F618AF
:1006C300ECF618EDF6D0E0FDD0E0FCD0E0FBD0E096
:1006D300FA22C0E074F2120AC4A2AFE433FED2AF2E
:1006E300E5A7FFE5A1F5085F5410600612224675E1
:1006F300A1EFE5085F5408600812224C75A1F7804A
:100703002BEFA2E0C0D0E508A2E092F012119815F9
:100713008182F05017906198E0F8900AB7E0C3988F
:10072300A2D265D0335002E8F075A1FEEEA2E092AA
:10073300AF7F01020B23C0E074F2120AC4A2AFE43C
:1007430033FED2AF9061A4E0F8759B00E591585455
:100753000860087591F7122294802AE59158541085
:1007630060087591EF12229A801BE8A2E0C0D0E5E1
:1007730091A2E092F0121198158182F05007E0C225
:10078300E0F01223DE9061A3E0F8E5E95854046039
:100793000E1223B475E9FB906193E0A2E640F28068
:1007A3008BC0E074F2120AC4A2AFE433FED2AF905E
:1007B30061A5E0F8E5BF585404600675BFFB12233A
:1007C300F602072FC3E498F8E499F9120808802683
:1007D300C3E49AFAE49BFBE920E7E9120808E498EA
:1007E300F8E499F922C3E498F8E499F9120808E4C3
:1007F30098F8E499F9C3E49AFAE49BFB22EB20E727
:10080300CFE920E7E0B90010BB0008E88AF084F8DC
:10081300AAF022E4FBC8FA22EB70227B10C833C88B
:10082300C933C9335007C39AC3DBF280069A500118
:100833002ADBEAC833F4C8C933F4C9FA2275F008CD
:10084300E4C833C8C933C933C99AC99B5004C92AF8
:10085300C93BD5F0ECFBC833F4C8E4C9FA2212084B
:10086300A120F01430E72B74FFFCFBFA747F802285
:10087300E4FCFBFA7480801AB48008BC00F2BB006D
:10088300EF800F50EBF9E4C39AFAE49BFBE49CFC82
:10089300E499C6CC18C6CB18C6CA18C6F922E4C94F
:1008A300C608CAC608CBC6D3330308CCC63392F0F6
:1008B300C3947F402E94184019C9B90704CACBCCFE
:1008C300225025C309CA33CACB33CBCC33CC33D95B
:1008D300F422F4600DC9CCC313CB13CBCA13CAD90A
:1008E300F6CC22E4FCFBFA2214FCFBFA22080808EB
:1008F300EAC0E0EBC0E086F0E7A4FA180986F0E767
:10090300A42AFA180986F0E7A42AFA180986F0E758
:10091300A42AFA1986F0E7A4FBE5F02AFA19088657
:10092300F0E7A42BFBE5F03AFA190886F0E7A42BCD
:10093300FBE5F03AFA18180986F0E7A4C5F02BFB9B
:10094300E43AFA1908E7C5F0C6A426F6E5F03BFB3E
:10095300E43AFA1886F0E7A4F6E5F00826F6E43B55
:1009630008F6E43A08F6D0E0FBD0E0FA22080808DB
:10097300E630E71112114B120988080808C64480B3
:10098300C618181822181818E9799EC608CAC60886
:10099300CBC608CCC6C370207996CACBCC70197964
:1009A3008ECBCC70137986CC700EF9802ACA33CAE9
:1009B300CB33CBCC33CC331930E7F2CCCBCA335067
:1009C300147004EA30E00DE4CA3ACACB3BCBCC3C0A
:1009D300CC500209C3E913C6CC182313C6CB18C6DF
:1009E300CA18C6F922E4CFC0E0E4CEC0E0E4CDC02B
:1009F300E0E4CCC0E075F020C3E633F608E633F656
:100A030008E633F608E633F6181818EC33FCED3332
:100A1300FDEE33FEEF33FFC3EC9709ED9709EE9735
:100A230009EF97191919400FFFEC97FC09ED97FD92
:100A330009EE97FE191906D5F0BEECF709EDF70993
:100A4300EEF709EFF7191919D0E0FCD0E0FDD0E07B
:100A5300FED0E0FF222518C582C0E0E51934FFC5AA
:100A630083C0E0E518C3958224F810AF0885831985
:100A73008582188008858319858218D2AFCEF0A3AA
:100A8300E520F0A37808E608F0A3DEFAEFF0A3E58B
:100A93008124FAF8E608F0A3E608F0A3E608F0A339
:100AA3000808E608F0A3E608F0A315811581D0E055
:100AB300FED0E0F8158115811581E8C0E0EEC0E0B5
:100AC30022C0D02518C582C0E0E51934FFC583C014
:100AD300E0E518C3958224F310AF08858319858256
:100AE300188008858319858218D2AFC8F0A3E9F06E
:100AF300A3EAF0A3EBF0A37908E709F0A3D8FAEC93
:100B0300F0A3EDF0A3EEF0A3EFF0A3D0E0F0A3D0B9
:100B1300E0F0A3D0E0F0A3E520F0A3E5F0F0A322FA
:100B2300851983851882E0C0E0A3E0F9A3E0FAA366
:100B3300E0FBA37808E0F608A3DFFAE0FCA3E0FDFE
:100B4300A3E0FEA3E0FFA3E0C0E0A3E0C0E0A3E0D6
:100B5300F5D0A3E0F520A3E0A3F5F010AF0885835B
:100B6300198582188008858319858218D2AFD082AF
:100B7300D083D0E0F8D0E0321212BAB90003020BEE
:100B8300BDE4900301787E790E8002F0A3D8FCD9EE
:100B9300FA90107EAA82AB8390008678AE790180AA
:100BA30015E493A3AC82AD838A828B83F0A3AA82DC
:100BB300AB838C828D83D8E9D9E775823B7583F942
:100BC3007403120FD07582FC7583267400120FD044
:100BD3000975F0108E1A8F1B85821F85831E851859
:100BE30082851983E0CEA3E0CF851F82851E83EB28
:100BF300C9EAC8EDCBECCAC3E833C8E933C9EA3361
:100C0300CAEB33CBC3EA9EF51DEB9FF51CB350042F
:100C1300AB1CAA1DEC33CCED33CDD5F0DAAE1AAF55
:100C23001B22121259601C12128660171212CF7007
:100C3300071212C57001D322C0D01212C57006D09C
:100C4300D0B322C32233D0D0501430E0F6C3E7969A
:100C53000809E7960809E7960809E796B32220E012
:100C6300D5E6970809E6970809E6970809E697B3D2
:100C730022D083D082ECC0E0EDC0E0E493A3FCE497
:100C830093A3FDED4C600D120D98EC24FFFCED34A5
:100C9300FFFD80EFE493A3FCE493A3FDED4C600D13
:100CA300120E92EC24FFFCED34FFFD80EFD0E0FD4B
:100CB300D0E0FCE493A3C0E0E493C0E02212125915
:100CC300601B12128660161212CF70071212C560D3
:100CD3000CB322C0D01212C57005D0D022C3223368
:100CE300D0D0501330E0EBC3E7960809E796080924
:100CF300E7960809E7962220E0E4E6970809E697D5
:100D03000809E6970809E69722851983851882E082
:100D1300A3FEE0A3F5207808E0A3F608DFFAE0A33A
:100D2300FFE0A3C0E0E0A3C0E0E0A3C0E0E0A3C015
:100D3300E0E0A3C0E010AF0885821885831980081E
:100D4300858218858319D2AFD083D082020FD6D083
:100D530083D082E9C0E0E493A3C386F0C5F095F0A5
:100D6300F908E493A386F0C5F095F0700BE493A320
:100D7300C3994005E9048002A3E475F002A4258227
:100D8300F582E5F03583F583D0E0F9E493A3C0E081
:100D9300E493C0E022C0E0C3E49396087401939601
:100DA30018400FE493667008087401936618700086
:100DB3007019A3A3C3E49396087401939618A3A38D
:100DC300400DD0E0D0E0D0E0020CB0A3A3A3A3A3D6
:100DD300A3D0E022C0E074F2120AC4E589A2E15074
:100DE30003122120758900C2C57F01020B23C0E0D5
:100DF30074F2120AC4E58BA2E05003122120758B12
:100E030000C2E880E47404800474028000CCC0E073
:100E1300EDC0E0E518C39CCCAD1950011D10AF0621
:100E23008C188D1980068C188D19D2AF120F52D0E1
:100E3300E0FDD0E0FC2274028000CCC0E0EDC0E015
:100E4300E518C39CCCAD1950011D10AF068C188D4D
:100E53001980068C188D19D2AF120F30D0E0FDD057
:100E6300E0FC22121259602512128660201212CF62
:100E730070030212C5080808E76670101819E766C0
:100E8300700A1819E76670041819E76622F422C07D
:100E9300E0C0F088F0E49366700808740193661864
:100EA3007000A8F0A3A3700BD0F0D0E0D0E0D0E0A6
:100EB300020CB0A3A3D0F0D0E022D083D082CCC068
:100EC300E0E493A36006120FB11470FAE493A360F5
:100ED300061210B81470FAD0E0FCE493A3C0E0E467
:100EE30093C0E022C008C3E096F50808A3E0964249
:100EF3000808A3E096420808A3E0964208A2D26538
:100F0300D033E5087001D3D00822C0E074F2120A8E
:100F1300C4A2AFE433FED2AFC2C0E5D1A2E4500312
:100F23001221BCEEA2E092AF7F01020B23CAC0E004
:100F3300E493A3C582CCC582C583CDC583F0A3C585
:100F430082CCC582C583CDC583DAE5D0E0CA22CA87
:100F5300C0E0E0A3C582CCC582C583CDC583F0A321
:100F6300C582CCC582C583CDC583DAE6D0E0CA226B
:100F7300C008C3E096F50808A3E096420808A3E07A
:100F830096420808A3E09645087001D3D008227062
:100F930009080808226016181818C6C333C608C6FD
:100FA30033C608C633C608C633C6D5E0EA22C0E056
:100FB300E493A3D39C5010E493A3C39C400AD0E0D2
:100FC300D0E0D0E0020EDAA3A3A3D0E022C09FF5C5
:100FD3009FE473D09F22D083D082C09FE493C0E06C
:100FE300740193C0E0740293F59F222518F58210D3
:100FF300AF08F518400215198008F51840021519B5
:10100300D2AF851983227404800A740380067402A4
:1010130080027401C0E0F404120FEED0E0121295C6
:1010230022C0D0251810AF08F51850020519800802
:10103300F51850020519D2AFD0D022BB0102E72226
:10104300C082C08389828A83BB0003E08002E49369
:10105300D083D082226016080808C6C313C618C6F8
:1010630013C618C613C618C613C6D5E0EA22C0E0D5
:10107300C0D0E8C0E0E5A8D2AFC2C7A2E792AFD024
:10108300E0F8D0D0D0E032C3E0C696F608A3E0C6BD
:1010930096F608A3E0C696F608A3E0C696F62225C0
:1010A3001810AF08F518400215198008F51840020A
:1010B3001519D2AF22C0E0E493A36C7009D0E0D03D
:1010C300E0D0E0020EDAA3A3D0E022C3E09608A3A7
:1010D300E09608A3E09608A3E096A2D265D0332257
:1010E300E066701008A3E066700A08A3E066700467
:1010F30008A3E06622E76670100809E766700A082D
:1011030009E76670040809E76622181818E6084616
:1011130008700AE608C3337005E633F4220822197F
:101123001919E7094709700AE709C3337005E7335B
:10113300F4220922C3E096F008A3E096F008A3E0A6
:1011430096F008A3E096F022181818E4C396F60860
:10115300E496F608E496F608E496F622E026F60806
:10116300A3E036F608A3E036F608A3E036F622E05D
:1011730026F008A3E036F008A3E036F008A3E03633
:10118300F022E627F60809E637F60809E637F608F7
:1011930009E637F622C0E0E8C0E0E58124FCF8E682
:1011A300A2E7D0E0F8D0E022E657F60809E657F6C2
:1011B3000809E657F60809E657F622E056F008A3B1
:1011C300E056F008A3E056F008A3E056F0227004BE
:1011D30022600D18C6C333C608C633C6D5E0F4185B
:1011E30022E647F60809E647F60809E647F608093E
:1011F300E647F622E056F608A3E056F608A3E056C3
:10120300F608A3E056F622C6F4C608C6F4C608C616
:10121300F4C608C6F4C622C3E09608A3E09608A362
:10122300E09608A3E09622C3E7960809E796080923
:10123300E7960809E7962275D00075814075180175
:1012430075190300020B7BE6F008A3E6F008A3E69A
:10125300F008A3E6F022E6084608C3134608336005
:1012630002E633F422600C08C6C313C618C613C6BD
:10127300D5E0F422E0F608A3E0F608A3E0F608A31D
:10128300E0F622E7094709C3134709336002E7334E
:10129300F422CAC0E0E6F0A308DAFAD0E0FA22EAC0
:1012A300F0A3EBF0A3ECF0A3EDF022E0FAA3E0FB54
:1012B300A3E0FCA3E0FD22E5C754F84401F5C77998
:1012C3000122E7C33319471947194722E6C33318E5
:1012D3004618461846222518F582E43519F5832267
:1012E300C2AF75D69F02000022120FD98F2D0012B4
:1012F3000FD9CA2D00120FD90E2E00120FD9352E79
:1013030000120FD9862E00120FD9362F00120FD9D3
:10131300EE2F00120FD9B63000120FD9763100121A
:101323000FD9BA3100120FD9DF3100120FD922328F
:1013330000120FD96F3200120FD9C73300120FD921
:101343004D3400120FD96B3400120FD995340012AB
:101353000FD9AF3400120FD9BE3400120FD9C934DC
:1013630000120FD9893500120FD9E23500120FD9B7
:10137300A43600120FD9AC3600120FD97037001201
:101383000FD9DC3700120FD9073900120FD92C39C6
:1013930000120FD9A23900120FD9343A00120FD913
:1013A300F43A00120FD9133B00120FD9223C00125A
:1013B3000FD9343C00120FD9A43C00120FD9CE3CF4
:1013C30000120FD95C3D00120FD9953D00120FD9C1
:1013D300E13D00120FD9FD3E00120FD94641001224
:1013E3000FD9514100120FD95C4100120FD9674147
:1013F30000120FD9714100120FD97C4100120FD98D
:10140300964100120FD9A04100120FD9AA41001230
:101413000FD9B54100120FD9DD4100120FD938425F
:1014230000120FD9424200120FD9664200120FD99F
:101433008A4200120FD9E84200120FD92C4300123E
:101443000FD9484300120FD9BF4300120FD9F743F6
:1014530000120FD9434400120FD9A04400120FD930
:101463005A4500120FD93E4700120FD99747001271
:101473000FD9C74800120FD9ED4800120FD9764A89
:1014830000120FD9F24D00120FD9C44F00120FD919
:101493008D5100120FD93A5200120FD9A5530012E1
:1014A3000FD9445400120FD9895400120FD9F354A1
:1014B30000120FD9025500120FD9895700120FD904
:1014C3003B5900120FD9A85900120FD9875A00129D
:1014D3000FD9A05B00120FD91D5D00120FD93C5D1F
:1014E30000120FD9915D00120FD9965E00120FD929
:1014F300BE5E00120FD9165F00120FD9F55F0012FE
:101503000FD9396000120FD9846000120FD9EF6030
:1015130000120FD9306200120FD9946200120FD952
:10152300E26300120FD9426600120FD973660012EC
:101533000FD92B6800120FD9806800120FD9846964
:1015430000120FD9216A00120FD97A6A00120FD93B
:101553002D6B00120FD9CF6B00120FD96F6C0012D5
:101563000FD9146D00120FD9E28701120FD9218808
:1015730001120FD9688A01120FD9B28A01120FD949
:10158300CD8B01120FD9358C01120FD96A8C011240
:101593000FD9DE8D01120FD9619001120FD98A91F3
:1015A30001120FD9209201120FD9289B01120FD9D2
:1015B300BD9B01120FD9A49E01120FD9979F01124F
:1015C3000FD905A001120FD94BA101120FD92DA2DA
:1015D30001120FD912A401120FD923A601120FD998
:1015E3008DA601120FD95FA701120FD98DA7011282
:1015F3000FD94AA801120FD921A901120FD9E8A9BD
:1016030001120FD98CAA01120FD9B5AA01120FD951
:10161300D7AA01120FD92DAD01120FD905AE0112B0
:101623000FD949AE01120FD9B1AE01120FD969AF6B
:1016330001120FD99BAF01120FD9DFAF01120FD9DE
:1016430015B001120FD961B001120FD9B6B0011252
:101653000FD9BBB001120FD90EB101120FD933B19B
:1016630001120FD942B201120FD9A6B201120FD93A
:1016730016B301120FD9A2B301120FD96FB601121B
:101683000FD953B701120FD9D6B801120FD90CBB1A
:1016930001120FD9BABB01120FD96ABC01120FD9BB
:1016A300ABBE01120FD94EBF01120FD995BF011264
:1016B3000FD941C101120FD955C101120FD95FC111
:1016C30001120FD987C101120FD993C101120FD98A
:1016D300B2C101120FD9D2C301120FD921C5011210
:1016E3000FD965C501120FD90DC601120FD9F0C666
:1016F30001120FD99BC701120FD9E7C801120FD9E5
:10170300E5C901120FD98BCA01120FD91BCB0112E4
:101713000FD932CB01120FD969CB01120FD973CB79
:1017230001120FD97ECB01120FD99CCB01120FD915
:10173300E0CB01120FD93DCC01120FD962CC0112BB
:101743000FD97CCC01120FD908CD01120FD925CEA8
:1017530001120FD992CE01120FD979CF01120FD9ED
:10176300A0CF01120FD914D001120FD98FD00112BB
:101773000FD993D101120FD989D201120FD938D3BE
:1017830001120FD94BD401120FD9E7D401120FD98B
:1017930074D501120FD952D601120FD98AD601126C
:1017A3000FD9E2D601120FD9ABD701120FD9CCD77B
:1017B30001120FD953D801120FD977D801120FD9BB
:1017C30099D801120FD9E2D801120FD9F8DA011210
:1017D3000FD9DFDB01120FD990DC01120FD9C6DE5E
:1017E30001120FD916DF01120FD956DF01120FD9DB
:1017F30098DF01120FD9F4DF01120FD922E0011291
:101803000FD946E001120FD999E001120FD9C7E0B1
:1018130001120FD900E101120FD955E101120FD9BD
:10182300BBE101120FD90FE301120FD932E5011207
:101833000FD99FE501120FD9C8E501120FD953E65D
:1018430001120FD9BAE601120FD905E701120FD918
:1018530029E701120FD94DE701120FD9A8E70112A9
:101863000FD9C3E701120FD97CE801120FD9609495
:1018730004120FD99F9404120FD9788002120FD942
:10188300BE8002120FD99E8102120FD9A0820212CA
:101893000FD9A38302120FD92F8502120FD98D8579
:1018A30002120FD94A8602120FD9688702120FD982
:1018B300D98702120FD9158802120FD96388021231
:1018C3000FD96D8802120FD9B18802120FD90D8971
:1018D30002120FD9A88902120FD9258A02120FD931
:1018E300F48A02120FD98D8B02120FD9AD8B02121B
:1018F3000FD9E38B02120FD9148C02120FD9D58C96
:1019030002120FD9E58C02120FD9398D02120FD9A9
:10191300548D02120FD9668D02120FD96F8D0212E8
:101923000FD9C98D02120FD9258E02120FD9718ECC
:1019330002120FD98C8E02120FD9BD8E02120FD94B
:10194300DA8E02120FD9E68E02120FD95A900212C2
:101953000FD9739002120FD9DA9002120FD9ED90BA
:1019630002120FD9FB9002120FD9AF9102120FD9B5
:10197300939202120FD9999302120FD92394021250
:101983000FD92D9402120FD99A9402120FD9B19440
:1019930002120FD9E39402120FD91C9502120FD928
:1019A300469502120FD9A79502120FD9C7950212B5
:1019B3000FD9E59502120FD92B9602120FD9519721
:1019C30002120FD99E9702120FD9CD9702120FD987
:1019D300439802120FD96B9802120FD9A4980212DE
:1019E3000FD9B29802120FD90A9902120FD9599935
:1019F30002120FD9989902120FD9C89902120FD95E
:101A0300F49902120FD9FF9902120FD91D9A0212EB
:101A13000FD9DF9A02120FD9E99A02120FD92A9B22
:101A230002120FD97F9B02120FD9939B02120FD977
:101A3300A19C02120FD9B49C02120FD9C99C0212A5
:101A43000FD96B9D02120FD9EE9D02120FD9AC9ED6
:101A530002120FD9B79E02120FD9E39F02120FD9B8
:101A6300FF9F02120FD951A002120FD990A00212A8
:101A73000FD9A5A002120FD907A102120FD996A15F
:101A830002120FD9E1A102120FD932A402120FD907
:101A9300B0A402120FD925A502120FD947A702122B
:101AA3000FD95FA702120FD962A702120FD96EA72F
:101AB30002120FD982A702120FD98AA702120FD9D5
:101AC300BDA702120FD96DA802120FD9E3A8021203
:101AD3000FD956A902120FD90AAA02120FD9BFAA07
:101AE30002120FD9DEAA02120FD984AB02120FD948
:101AF300AFAB02120FD9B2AB02120FD91CAC021258
:101B03000FD944AD02120FD91CAE02120FD9A7AEE2
:101B130002120FD9C0AF02120FD97DB002120FD932
:101B2300B6B002120FD9E7B002120FD9A5B1021253
:101B33000FD9D5B102120FD9B0B202120FD949B3DE
:101B430002120FD9D4B302120FD985B402120FD9DE
:101B530008B502120FD93AB502120FD97BB502129A
:101B63000FD905F502120FD96AF502120FD9A7F59D
:101B730002120FD9F6F502120FD90CF802120FD97F
:101B8300EFF902120FD959FD02120FD994FD021277
:101B93000FD9B6FD02120FD919FE02120FD94DFE4D
:101BA30002120FD970FE02120FD99DFE02120FD935
:101BB300F9FE02120FD921A703120FD99FA703120F
:101BC3000FD9D5A703120FD941A803120FD9B4A96E
:101BD30003120FD9D0A903120FD915AA03120FD9D3
:101BE300A3AA03120FD9FCAA03120FD929AC03121B
:101BF3000FD93BAD03120FD998AD03120FD904AE21
:101C030003120FD965AE03120FD9A6AE03120FD973
:101C130053AF03120FD9B9E002120FD990B00312D8
:101C23000FD9DBB003120FD922B103120FD9B4B10C
:101C330003120FD96FB203120FD93D8A04120FD9C1
:101C4300B88A04120FD9C38A04120FD9E6B2031259
:101C53000FD9F0B203120FD93CB303120FD9AAB3B1
:101C630003120FD9CBB303120FD97BB403120FD9CD
:101C73000FB703120FD918B703120FD96BB703129B
:101C83000FD994B703120FD9FBB703120FD98CB82E
:101C930003120FD9692D00120FD918B903120FD9E6
:101CA30077B903120FD9A3B903120FD934BA0312A8
:101CB3000FD973BA03120FD9B2BA03120FD9E7BA05
:101CC30003120FD9F9BA03120FD90BBB03120FD9A1
:101CD3002ABB03120FD933BB03120FD9E9BB03127B
:101CE3000FD929BC03120FD96E9104120FD9AF7DFE
:101CF30000120FD9E57D00120FD92E7E00120FD9E5
:101D03007E7F00120FD9B6E801120FD9F5E901124F
:101D13000FD931EA01120FD9F0EB01120FD919ECE7
:101D230001120FD9ACEE01120FD9F0EE01120FD947
:101D330079F001120FD911F101120FD979F10112C2
:101D43000FD91AF201120FD95CF201120FD99CF2CA
:101D530001120FD927F401120FD997F501120FD9E8
:101D6300BCF701120FD9EAF701120FD911F80112CA
:101D73000FD91AF801120FD9A1F801120FD9BFFB1D
:101D830001120FD9019604120FD9179604120FD915
:101D9300159404120FD9D6F503120FD9E9F50312DE
:101DA3000FD986F603120FD9C1F603120FD9DCF649
:101DB30003120FD901F703120FD946F703120FD9F4
:101DC30077F703120FD9A8F703120FD92EF90312CD
:101DD3000FD9B68B04120FD9EC8B04120FD9088CD0
:101DE30004120FD94A8C04120FD95A8C04120FD93A
:101DF300EF8C04120FD9F98C04120FD9118D041230
:101E03000FD90CCD03120FD9D1CD03120FD990CE18
:101E130003120FD9DDCE03120FD9FCD003120FD951
:101E230070D103120FD96AD203120FD982D20312CF
:101E33000FD99CD203120FD9FA9903120FD94F9AD3
:101E430003120FD9389B03120FD9D19B03120FD959
:101E53001B9C03120FD9789C03120FD98C9C03127D
:101E63000FD9BE9C03120FD9BC9D03120FD9009E3C
:101E730003120FD91B9E03120FD96A9E03120FD9A7
:101E8300809E03120FD98D9E03120FD9C19E031298
:101E93000FD9DA9E03120FD9A49F03120FD9FE9F05
:101EA30003120FD94CA003120FD96EA003120FD93E
:101EB300E5A203120FD91AA303120FD9AAA303127F
:101EC3000FD91FA403120FD924A403120FD960A49E
:101ED30003120FD9B6A403120FD97AA503120FD98F
:101EE3009FA503120FD9A9A503120FD9ACA50312FD
:101EF3000FD935A603120FD950A603120FD963A623
:101F030003120FD99EA603120FD9A1A603120FD94C
:101F1300ACA603120FD9E8A603120FD9C893041273
:101F23000FD9E09304120FD98EC503120FD9DDC563
:101F330003120FD97FC703120FD93DC903120FD95B
:101F430085C903120FD9A7CA03120FD9D8CB03121D
:101F53000FD9FACB03120FD956CC03120FD9D8CC11
:101F630003120FD9008003120FD9218003120FD956
:101F7300AB8003120FD9308103120FD9AC81031246
:101F83000FD9158203120FD9618203120FD9E08290
:101F930003120FD9728303120FD9FE8303120FD9D1
:101FA300408403120FD9AC8803120FD92C8A031271
:101FB3000FD9028B03120FD9318B03120FD91C8D4A
:101FC30003120FD99C8F03120FD9559003120FD907
:101FD300729103120FD9C99403120FD9D994031222
:101FE3000FD93A9603120FD9C69603120FD9EF975A
:101FF30003120FD9E09803120FD9629903120FD974
:102003008AE602120FD944E702120FD9B6E7021289
:102013000FD952E802120FD9C2E802120FD97BEB93
:1020230002120FD952EC02120FD9BFEC02120FD9D0
:102033003CEE02120FD906EF02120FD976EF02120D
:102043000FD93FF102120FD952F202120FD9EBF25C
:1020530002120FD9B1F302120FD932EB03120FD9C7
:1020630086EB03120FD9DEEB03120FD929EC03120F
:102073000FD98BEC03120FD9F7EC03120FD9AAED8A
:1020830003120FD9EBED03120FD901EE03120FD98F
:102093005DEE03120FD99BEE03120FD9AB86041228
:1020A3000FD9DC8604120FD9968704120FD9FC8747
:1020B30004120FD9C6F903120FD952FB03120FD919
:1020C3008C9504120FD99D9504120FD9858804129B
:1020D3000FD9938804120FD9E5FF02120FD9E192A9
:1020E30004120FD9F19204120FD90C9304120FD9D1
:1020F3006D9304120FD96C9004120FD9F19004124E
:102103000FD9559104120FD95A8F04120FD97C8F0E
:1021130004120FD9E68F04120FD9F18F04120FD9CD
:10212300359004120FD939D803120FD947D80312A7
:102133000FD988D803120FD9A2D803120FD91FD9E8
:1021430003120FD919DA03120FD93EDA03120FD98A
:102153005BDA03120FD978DA03120FD99DDA03126F
:102163000FD9C5DA03120FD90DDB03120FD988DBA0
:1021730003120FD938DC03120FD9CCEE03120FD997
:10218300DAEE03120FD954EF03120FD938F003120A
:102193000FD9F1F103120FD9DF9504120FD944D3EC
:1021A30003120FD9B0D303120FD96FD403120FD96F
:1021B30079D503120FD9D2D603120FD92DD7031213
:1021C3000FD982D703120FD98BD703120FD99DD7FB
:1021D30003120FD907D803120FD91BD803120FD933
:1021E30025D803120FD9B4E103120FD909E2031260
:1021F3000FD905E403120FD937E403120FD959E4B9
:1022030003120FD972E403120FD98BE403120FD90F
:1022130095E503120FD930E603120FD98DFE031291
:102223000FD9B1FE03120FD9CAFE03120FD9FDFE57
:1022330003120FD92EFF03120FD95CFF03120FD91C
:10224300BEFF03120FD9CDFF03120FD9D7FF03121D
:102253000FD9E4FF03120FD9FDFB03120FD923FC9F
:1022630003120FD960FC03120FD96FFC03120FD9AD
:102273008EFC03120FD9F6FC03120FD9FFFC0312D5
:102283000FD95EFD03120FD982FD03120FD941FE50
:1022930003120FD94EFE03120FD95FFE03120FD99B
:1022A300ED9404120FD90A9504120FD9A7E603126D
:1022B3000FD905E803120FD912E803120FD925E845
:1022C30003120FD944E803120FD95AE803120FD9A6
:1022D3006EE803120FD9E3E803120FD948E903129A
:1022E3000FD9F8E903120FD9CDEA03120FD9DDEAAA
:1022F30003120FD9ECEA03120FD9489204120FD933
:102303006C9204120FD9949204120FD9BC92041246
:102313000FD9008004120FD9278004120FD94880E7
:1023230004120FD9AD8004120FD9668204120FD99B
:102333007F8204120FD98B8204120FD99F82041259
:102343000FD9BD8204120FD9C78204120FD9D182CB
:1023530004120FD9E48204120FD9378304120FD960
:10236300708304120FD99F8304120FD9ED830412D3
:102373000FD93C8404120FD9578404120FD96184F6
:1023830004120FD9728404120FD9B88404120FD91E
:10239300779304120FD952BC03120FD97CBC0312DA
:1023A3000FD998BC03120FD9ABBC03120FD9C1BC10
:1023B30003120FD91EBD03120FD951BD03120FD93A
:1023C3008DC103120FD9B3C203120FD9E6C2031290
:1023D3000FD932C303120FD95EC403120FD986C4B7
:1023E30003120FD99BC403120FD9ABC403120FD925
:1023F300EFC403120FD950C503120FD960C50312DE
:102403000FD9148D04120FD92F8D04120FD9588DA3
:1024130004120FD9728D04120FD9978D04120FD99C
:10242300B68D04120FD9CE8D04120FD9FC8D041270
:102433000FD9168E04120FD9A99404120FD956F28C
:1024430003120FD95DF203120FD969F303120FD9E7
:1024530099F303120FD9BFF303120FD9E2F3031257
:102463000FD904F403120FD93EF403120FD9A4F4C5
:1024730003120FD9DDF403120FD929F503120FD973
:1024830056F503120FD976F503120FD9C38404123C
:102493000FD9DB8404120FD9C98504120FD9A8867A
:1024A30004120FD9478E04120FD9B98E04120FD913
:1024B300F78E04120FD9388F04120FD940FC011282
:1024C3000FD95FFC01120FD9AEFC01120FD9CAFC60
:1024D30001120FD9FBFC01120FD908FD01120FD90C
:1024E30015FD01120FD901FE01120FD93FFE011292
:1024F3000FD94FFF01120FD95AFF01120FD96CFFE9
:1025030001120FD975FF01120FD97FFF01120FD9E5
:10251300F7DC03120FD93CE103120FD94AE103128E
:102523000FD95F9504120FD945FF02120FD96FFF20
:1025330002120FD9299504120FD9B79504120FD996
:10254300E17F00120FD9606D00120FD97E72001265
:102553000FD9D7DF02120FD9BBDF02120FD93FDF2A
:1025630002120FD9F6DE02120FD9AEDE02120FD914
:10257300FCDD02120FD96EDD02120FD961DD0212EA
:102583000FD95BDA02120FD9BDD702120FD9502D22
:1025930000120FD9FC2C00120FD986D602120FD9C4
:1025A300DAD502120FD9582C00120FD9CE2B0012F4
:1025B3000FD920D402120FD9D0D102120FD957D17B
:1025C30002120FD9FED002120FD98ED002120FD9E8
:1025D30065D002120FD945CE02120FD911CE0212C5
:1025E3000FD9DECD02120FD9C2CD02120FD9DBCC27
:1025F30002120FD993CC02120FD9DECA02120FD9DD
:102603005ECA02120FD95BCA02120FD958C902124D
:102613000FD926C902120FD963C802120FD98EC669
:1026230002120FD91FC602120FD9F1C502120FD918
:102633006D2B00120FD91B2B00120FD9092B00127F
:102643000FD963E602120FD945E602120FD9EEC580
:1026530002120FD9DBC502120FD986C502120FD998
:10266300FEE402120FD975C502120FD967C4021214
:102673000FD931C402120FD9DFC302120FD95BE4A1
:1026830002120FD9CEB803120FD980C302120FD989
:102693004FC302120FD917C002120FD9D7BF0212AC
:1026A3000FD9CBBF02120FD92BBF02120FD96BBEAA
:1026B30002120FD9EDBB02120FD97EB902120FD944
:1026C3003CB902120FD910B802120FD9C5B70212C2
:1026D3000FD904B702120FD9D7B602120FD91AB6FF
:1026E30002120FD9B0B502120FD9EAB502120FD9EF
:1026F3000EE302120FD965B00300000080FBE47300
:10270300000136360101000102010001030100014D
:102713000401060605020000070100340801000F4A
:10272300090401010D0100FF0E080000170200005B
:10273300190100FF1A0100011B0100FE1C01000822
:102743001D0200001F010001200100012102000001
:102753002301000F240200002601000127010008C5
:10276300280200FF2A0100072B0102402C01000070
:102773002D0100012E0100012F0100FF30010B1C70
:10278300310800003A0100083B01000F2F0100004F
:10279300030271023001600211027002010202029F
:1027A30002028002100261023A00410063027302D6
:1027B30072026202430200021302380000020002A6
:1027C30004021202000200020002000204020402D8
:1027D300370037003C0244020002390000020002C5
:1027E30065020002350281020002050282028302B1
:1027F300000203007100300160001100700031021B
:1028030020035004800010006100000014006300E6
:102813007300720062004300000013000600000012
:10282300000004001200000000000000000004008B
:102833000400370037003C024400000000000000A1
:102843000000650000003500810000000500000065
:102853008300000003047104020460041104700483
:1028630002040204010402041004610400041404B9
:10287300630473047204620443040004130406042F
:10288300000400040404120400040004000400040F
:102893005104640000040004000444040004000420
:1028A3000004000465040004350481046400050485
:1028B3000004830400040103710301030103010302
:1028C30001030103220302030103100300030003B6
:1028D3000003000300030003000342030003240377
:1028E3000603000300030403120325032303250344
:1028F300230304030403000300030003440300034E
:102903000003230300036503210035038103000350
:10291300050300030003000301017101010101012B
:102923001101010131010101010180011001610166
:102933003B00140063017301720162014301000152
:10294300130106013D0135000401120100010001DC
:102953000001000104010401330133013C0144017E
:1029630032013600000100016501000135008101DB
:102973000001050182018301000136000100060008
:1029830000000F0000000000000000000000000035
:1029930003FFFF00000403FFFF0000FFFF0FF4012C
:1029A3000005C4040320000100030B000000000025
:1029B30000000003010F000018201300B81F0100DE
:1029C30018200200821F0300881F04008E1F0500C9
:1029D300941F0600A01FFFFF000001B01506E015BD
:1029E30008DA150BEC15102C1502B61505CE1507D4
:1029F300BC150C92150DA415FF000003EAF5E5D5EF
:102A0300D5C5B5A5959585857575656555554545B3
:102A130035352525151505B819E819BE19C419E268
:102A230019D619D019EE19F419FA19061ACA19B2D6
:102A330019AC1900160F00000B150B020002220F30
:102A430032000006A21AB41ABA1A8219C01A7C19E3
:102A53008819BC18B618F218F818EC18A418FC1A40
:102A63001A1B201B021B0E1B081B303016181920C3
:102A7300231A1C1E300C0E020B040B0A0708000F4E
:102A830000383C3E363B3B352B432C30301718196E
:102A930021301B1D1F3000011916181616152303AC
:102AA3000000034948424D1817250502F01AC61ABB
:102AB300CC1AD81AD21ADC19001A141B0C1A121ABF
:102AC300020402010101010902C818CE18C218FE4E
:102AD30018000000000000D418E61800BE040A0E17
:102AE30000150004007F00E8030C0028000000002C
:102AF300000308100C0A03080900040001FF1E1E4E
:102B03000C05040F1008C082C0838A828B83E0D235
:102B1300E7F0121EE6023C80C082C0837900122FC8
:102B2300D5125CECC082C083900334124A72D08306
:102B3300D082C3E09CA3E09D500C1263C0FAA3E0D3
:102B4300122B4C600109023C80FBEA75F00BA4FADE
:102B5300A8F075F00BEBA428FB900336E02AF8A34A
:102B6300E03B8882F583E0540F2274F7120A5889F8
:102B730008122FD512307BACF075F00BE9A42CF9B9
:102B8300900336E028FEA3E039FF74016508600670
:102B93007402650870208A828B83123067123D4E5F
:102BA30074026508701B122F261230AE70138E82CA
:102BB3008F83E4F0800BEA2403FCEB1230491230DC
:102BC30055EEFAEFFB12263C023CB874F4120A5895
:102BD300126CE779008E828F83E06076890A890B15
:102BE3008065E50A75F00BA4FAA8F075F00BE50B08
:102BF300122B597046E50A75F00BA4F8AAF075F08C
:102C03000BE50B12308D8E828F83E0850882850958
:102C13008312316F850882850983A3123D4EEE240A
:102C230003FCEF123052123C87125766AA08AB0915
:102C330012263C790190033412517BE50A2401F5F5
:102C43000AE50B3400F50B122F2EE50A9AE50B9BD0
:102C53004090023EF874F5120A58EAFEEBFF740B3B
:102C63001212D9123C8C750A01EC4D602BEC126DDB
:102C730003ED125CEC123D467901122630E508455E
:102C830009606F850882850983A3126CF17902AA12
:102C930008AB09122630805AE5084509602B125CFF
:102CA300F01243BA123C88123098700CEEFAEFFB24
:102CB3001225ACE9F50A80CBEE2403FA122FD0706B
:102CC300317903EEFAEFFB80CA8E828F83A3E0642F
:102CD300FE7003A3E0F4700BEE24030A0A0A122F1A
:102CE300D0700CEEFAEFFB1225ACE9F50A80037500
:102CF3000A00A90A7F03020D0C74F7120A58900305
:102D030034123CC8EA4B602FEA75F00BA4FAA8F022
:102D130075F00BEBA428FBEAFEEBFF121CFA900301
:102D230036123CC8900336124FC06012EEFCEFFD22
:102D33007900121C5E8007900336E4F0A3F0023C96
:102D4300B890033412472AC3EE98EF9922C082C089
:102D530083EC4D60051224B680097C087D00790060
:102D6300121C5E023C8074F6120A587900EA4B602A
:102D73001878008808126033EB1263BC6004790191
:102D8300780808E8C3940840EA023D5774F7120A2A
:102D93005874F31210A2ECFEEDFF85188285198397
:102DA300E4F0041212D9EAF0A3EB1254EC74031208
:102DB30012D9AC82AD83EEFAEFFB12258EEEFAEF59
:102DC300FB121C94023CB374F7120A5874F31210EA
:102DD300A2ECFEEDFF851882851983E4F0EAFCEB93
:102DE300FD74031212D912316874011212D9123D03
:102DF300428E828F83123D4E74FE68700374FF69A6
:102E03006004790180027900023CB374F7120A5816
:102E1300EAFEEBFF122E6C7014122E778E828F83D4
:102E2300E0F4F88A828B83E058F012263CA908026A
:102E33003CB874F7120A58EAFEEBFF7508008E825D
:102E43008F83E06022122E6C701D122E778A828B84
:102E530083E08F838E82F8E058700CE0F88A828BCF
:102E630083E048F012263C80C4122636E9F5087444
:102E730001650822126CFC12307F122FC1FAA3E005
:102E830039FB2274F4120A588A088B097C007D00EE
:102E9300122F26123055122FE6126CEE7900850898
:102EA30082850983A3E064FE7003A3E0F460717E6E
:102EB300007F008062EEFAEF122B4C6057EEFAEFC0
:102EC300FBEA75F00BA4FAA8F075F00BEBA428FB52
:102ED300900336E02AF50AA3E03BF50B85088285CB
:102EE3000983A312543A850A82850B83A3E06A708F
:102EF30003A3E06B701EE50A2403FAE50B122FD13E
:102F0300700AE50A2403FCE50B123052122FDA791A
:102F130001125D021238C5122F2EEE9AEF9B4095D7
:102F2300023EF8EA24030A0A0AEB229003341258F9
:102F3300D9C32274F3120A588A088B098A828B83B5
:102F4300A3126CF1122FD5126CEE750C00122F2602
:102F5300122FD170547E007F008049122FB3FAA341
:102F6300E0398A82F583E0540F6036122FB3F50AF5
:102F7300A3E039F50BE50A2403FCE50B12305C34BE
:102F830000FB1224B0E964017017850A82850B8364
:102F9300A312599AA3123D4E122FDA750C01125D3A
:102FA300021238C5122D4440B2A90C7F05020D0C44
:102FB300EEF8EFF9E875F00BA4F8122FC122AAF08E
:102FC30075F00BE9A42AF9900336E02822EF1230BA
:102FD300A822126D02EB22122FE6125CFDEEF0A383
:102FE300EFF022E508126D03E5092274F5120A5881
:102FF300EAFEEBFF8E828F83A3126CF17C007D00CF
:10300300EE24030A0A0AEF123055EEFAEFFB1226FA
:1030130036E9F50A7401650A7029126CFC12307BDB
:10302300AAF075F00BE912308D850882F583123012
:1030330067123098700DE5082403FCE50912304946
:10304300123055022CF53400FDEE2403FAEF221260
:10305300305C3400FB12258E223400FDE508240386
:10306300FAE50922A312306C2212307022E0F8A391
:10307300E0F98E828F83A32212307F223400F583FE
:1030830012472EE875F00BA4F822122FC7F508A3F8
:10309300E039F50922E8F0A3E9F0E5082403FAE5AD
:1030A300091230A8221230AE6401223400FB121C34
:1030B30094E92274F3120A5874E61210A2126CE710
:1030C300750C01750800750900750A00750B0085FC
:1030D3001882851983E4F0EE2403FCEF3400FD74B9
:1030E300031212D9123168E964017023740B1212AE
:1030F300D9123D4674011212D912543E7003A3E053
:1031030069605185188285198385820885830974CE
:103113000D1212D9E412316F740E1212D9123D4EF0
:10312300740D1212D9AA82AB83121304E9640170DD
:103133000B740D1212D985820A85830B780A12103B
:1031430011AC08AD09EEFAEFFB1225A674021210BA
:1031530024E9F50CEEFAEFFB1212FEA90C741A1215
:103163001024022FAE12343B12130A22123CC31254
:10317300472A22C082C08378007900800312326616
:10318300122F2EE89AE99B5029E8FAE9FBEA75F039
:103193000BA4FAACF075F00BEBA42CFB900336E018
:1031A3002AFCA3E03B8C82F583E0540F70CF7900B7
:1031B30080027901023C80C082C083902AE41247D6
:1031C30080EC75F012A4FCA8F075F012EDA428FDB4
:1031D30079FF7A267B0B121C5E023C8074F7120A7D
:1031E30058E9FEEAFF7A007B00780079008028E83E
:1031F300FCE9FDEC75F012A4FC85F00875F012ED06
:10320300A4250812367BC39E400AE0FCEFC39C4012
:103213000312379A12326612366F40D3023CB8C09B
:1032230082C08378007900800312326612325A50CA
:103233001F12367FF470F2E875F012A4F8AAF07545
:10324300F012E9A42AF9742628FA740B39FB8004D6
:103253007A007B00023C80902AE4123730C3E89A5C
:10326300E99B22E8240108E93400F92274F0120AE8
:103273005874F31210A28A0A8B0B8C0C8D0D8908DB
:10328300EC450D6016AA0CAB0D1213588A0E8B0F6A
:10329300AE0EAF0FEE4F600302332D12132E8A0EC4
:1032A3008B0FA80EA90FE8FEE9FFE849607C902A7E
:1032B300F212338F60227403650860067404650894
:1032C30070167A047903121328902AF21233A64057
:1032D300077A007B0002338C902AF012338F601B35
:1032E30074016508600674026508700F7A0279013B
:1032F300121328902AF01233A650D6851882851906
:10330300837401F01212D9125766AC0CAD0D74031D
:103313001212D9123434740B1212D9123C94124182
:103323002EE412574E1217FC8004EE4F604A7800C9
:1033330074FF2508C39404500278048E828F83128D
:1033430057668E828F83A3A3A3A3E508F0E88E823A
:103353008F83A3A3A3A3A312576E120800123747A8
:103363008E828F83A3A3A3A3A3A3A3F012373E123A
:1033730012AE125CE61212A2123394400590108230
:10338300E4F01216D6EEFAEFFB02473412588849DE
:10339300227A047900121328902AE41263A2EA988D
:1033A300EB99221233BF75832A7582E4E493C398A1
:1033B300F8A3E49399F9C3EA98EB9922E493F87498
:1033C3000193F92274F2120A5874F31210A28A08B4
:1033D3008B09ECFEEDFF750A00EEFAEFFB121358B2
:1033E3008A0C8B0DA80CA90DE849603E888289835D
:1033F300E065087004A3E06509602F88828983A3D0
:10340300A3A3A3E0C394055021125B94851882857E
:1034130019837401F01212D9125B98EEFCEFFD745C
:10342300031212D9123434750A01A90A740D025217
:103433003212343B12131622AA82AB8312258E85D5
:103443001882851983AA82AB832274F6120A581252
:103453003489600FA3A3A3A3E014C3940450047995
:103463000180027900023D5774F6120A581234891A
:10347300600FA3A3A3A3E014C394025004790180B3
:10348300027900023D571213528A828B83E58245EB
:10349300832274F6120A58123489600BA3A3A3A3E0
:1034A300E07004790180027900023D57C082C08335
:1034B300EAFCEBFD7A007B00023C7DC082C0837C8A
:1034C300007D00023C7D74F4120A5874F31210A2BA
:1034D300EAFEEBFF8C0A8D0BC3EC94F8ED94FF40EE
:1034E30007EE4F7003023582750800750900802EC0
:1034F3008518828519837401F01238ED1212D912DE
:1035030038FB601374031212D9AC82AD83EEFAEF69
:10351300FB1224B0E97049E508240112371B902AF5
:10352300E4E4125890E50898E509995052E50875C6
:10353300F012A4F8AAF075F012E509A42AF91263AF
:10354300D560D4EE4F70A974FF650A700474FF65EB
:103553000B60C41238DD650A7004A3E0650B70B715
:10356300E50875F012A4F508A8F075F012E509A4B2
:1035730028F50974262508FA740B3509FB80047AAB
:10358300007B00023EF374F4120A5874F31210A283
:103593007508001213588A0A8B0BAE0AAF0BEE4F55
:1035A300602A8518828519837401123CBDF8A3E053
:1035B300F9740B1212D9123DD11212F87C127D004C
:1035C30079FFEEFAEFFB121C5E750801123394507B
:1035D300099010827401F01216D6A908023EF37402
:1035E300F7120A58E9FE74FE6A700374FF6B7800E1
:1035F30079007005805212326612366F504AE8FC29
:10360300E9FDEC75F012A4FCAFF075F012EDA42FF8
:1036130012367BF460E0E8FCE9FDEC75F012A4FCE3
:1036230075F012EDA42FFD74262CF582740B3DF575
:1036330083E06A7003A3E06B70BC800912367F14C9
:10364300C39404401712326612325A5018EE70ECCB
:1036530012367F64016005E0640370E91238CEFA24
:10366300A3E0FB80047AFE7BFF023CB8902AE412BD
:103673004784C3E89CE99D221237CF22E8FAE9FB8D
:10368300EA75F012A4FAACF075F012EBA42CFB74FB
:103693002A2AF582740B3BF583E02212136A023C5B
:1036A30080C082C083790180F274F0120A588A0ABA
:1036B3008B0B7A0479011213288A0C8B0DEA450DC2
:1036C300603EEAC333FAEB33FB121CFA8A088B0918
:1036D300AE08AF09EE4F60237AFE7BFF12137074BE
:1036E300FE6A700374FF6B601B8508828509831271
:1036F3003CC8E508240212371B80E1750C008004E6
:103703007E007F00850A82850B83E50CF0EEFAEFDD
:10371300FB024739E5082407F508E5093400F509F4
:1037230022902AE4124784C3EA9CEB9D22E493FA95
:10373300740193FB22121C52740322125CF7E4F00F
:103743009087C422E88E828F83A3A3A3A3A3A3A3FA
:10375300A31237697401123769A3F0EE2410125CC7
:10376300FAE4F0A3F02212413AA3A3A322C082C039
:10377300837A007B0080041912379A123724501081
:103783001237B9C3940550F0E970EC1237A38004E3
:103793007A007B00023C80EA24010AEB3400FB221E
:1037A300EA75F012A4FA75F012EBA428FB74262A2A
:1037B300FA740B3BFB22EAFCEBFDEC75F012A4FC64
:1037C300A8F075F012EDA4281237CF22FD742A2C2D
:1037D300F582740B3DF583E02274F7120A5874F3F3
:1037E3001210A27E007F00023881E50875F017A44D
:1037F300F8A9F0126636FAA3E0FBEEF8EFF9E875E4
:10380300F012A4F8ACF075F012E9A42C1238DC6ABB
:103813007003A3E06B603FE50875F017A4F8AAF006
:10382300EA126635F8A3E0F974011212D9E0687060
:1038330003A3E0696020E50875F017A4F8EAF974BA
:10384300A228FC740C39FD74031212D9AA82AB832B
:103853001224B0E96014E50875F017A4F8A9F07410
:10386300A028FA740C39FB1218080508902AF6E40C
:1038730093F8E508C39850030237ED1238C5902A30
:10388300E412697C5039EEF8EFF91238CEF4700384
:10389300A3E0F460E68518828519837401F0EEF8DD
:1038A300EFF9E875F012A4F875F012E9A42AF912F9
:1038B30038ED1212D91238FB60C175080080AD02D1
:1038C3003CB3EE24010EEF3400FF22E875F012A49E
:1038D300F8AAF075F012E9A42AF91238E122742645
:1038E30028F582740B39F583E022742828F5827455
:1038F3000B39124728740B22E8F0A3E9123DD912C1
:103903001310E922C082C08390033D74C8F0A374EE
:1039130015F090033F74C2F0A37415F09003437441
:10392300E2F0A37413F0023C8074F7120A58EAFE23
:10393300EBFF900377E06408601BE0640460168E7D
:10394300828F83E0540364017048123C8712422F34
:10395300E06406703D8E828F83A3A3E064FE700350
:10396300A3E0F4602D8E828F83A3A3123D429003C4
:1039730068E0687003A3E069700BEE2415F582EF2D
:103983001263BC6008121676E9F508800812167CEB
:1039930080F67508C2EEFAEFFB121D00022E30749A
:1039A300F4120A588A088B098A828B83E0F8A3E011
:1039B300FAE82AFAE43400FB121CFA8A0A8B0BAEEB
:1039C3000AAF0BEE4F6063850882850983E0FC7DB7
:1039D300007900121C5E8E828F83A3A3126CF112F6
:1039E30016B88E828F83A3A3A3A3123CC885088233
:1039F300850983E0F8EE28F8EF3400123D4A850884
:103A030082850983A3E0C0E0EE240D125CE9D0E0D7
:103A1300F01216CAEE240E125CE9E912539BE0C0C1
:103A2300E0EE2411125CE9D0E0F0EEFAEFFB023E87
:103A3300F874F6120A5874EB1210A2EAFEEBFF12A6
:103A43004FBD6003023AD87A077B00121CFA900339
:103A530039123CC8124FBD60788E828F831212AE2A
:103A630090033A1242321212A2126BB5C0E0123A1C
:103A7300E4D0E0F0EE2405FAEF3400FB8A088B096A
:103A83008A82F583E0C0E0123ADFD0E0123EEFE035
:103A9300C0E0123ADFA3D0E0123D341212AE851813
:103AA300828519831212A288828983E0C0E074059B
:103AB3001212D9D0E0F0850882850983E0C0E07452
:103AC300041212D9D0E0F074071212D9123C1A80F2
:103AD300067910800279017415023D54123AE4A369
:103AE30022900339E0FAA3E0F5838A82A3A3A3A378
:103AF30022C082C083124FBD600D9003391258C794
:103B0300900339E4F0A3F01215E61217A8023C80E3
:103B130074F0120A5874EB1210A2ECFEEDFF890840
:103B230074251212D9780C12127774291212D9E063
:103B3300F9742A1212D9E0FC742B1212D9E0FD7425
:103B43000F697005740F6C60129010CAE064027004
:103B53000579C1023C15E9C39C40F6900378780CC3
:103B630012124AE50890037EF0E990037CF0ECA37F
:103B7300F0ED90037FF074FF6A700374FF6B701DA8
:103B83009010D5E0F47003A3E0F47005121C70806C
:103B93000C9010D5123C9DE8F0A3E98007900375C3
:103BA300EAF0A3EBF0EE4F6017EEFAEFFB121868A2
:103BB300E96401700BEEFCEFFD7A897B031224B6F6
:103BC300900368E4F0A3F090036BF0A3F0900388F4
:103BD300F09010CAE06402700890037C740FF0A3A5
:103BE300F09003777405F0141212D9E4F09003787F
:103BF3001212AE8518828519831212A290037EE0F9
:103C0300C0E074051212D9D0E0F074071212D91271
:103C13003C1A7415024736E4123DD91224E022C03F
:103C230082C083900338E07003121FB21213B28074
:103C33004CC082C083900338E09010817004E4F09C
:103C4300802D7401F0900338E0F460237C41E0C3DD
:103C530094415002E0FCECF8E0C398F0EC75F0E816
:103C6300A4CCA8F075F003A428FD7A8012478C7ABF
:103C7300817B1079411224CE800312135ED083D04E
:103C830082020FD6EE125CF822E0F508A3E0F509F4
:103C930022123C9822123070A32212472A900375F5
:103CA3002274F7120A58EB90037FF01215D48005A3
:103CB300740D1210247F01020D0C123CC3A3E022E9
:103CC300123D34A322EAF0A3EBF02274F7120A5850
:103CD30074F81210A2EAFEEBFF7900900377E06418
:103CE30008704485188285198374FDF0A374FFF06E
:103CF3001216B274021212D9123CC874051212D9E8
:103D0300E4123CC3E0C0E074041212D9D0E0123DC7
:103D13002FC0E074061212D9D0E0F074071212D942
:103D2300E4123DD51216F47408023CB5123D34E09A
:103D330022F08E828F8322F08518828519832212C6
:103D4300472A22E0F8A3E0F9125CF7E8F0A3E9F0D0
:103D5300221210247F02020D0CC082C083900349FB
:103D63007472F0A37414F09003EF744EF0A37417FD
:103D7300F090034D74A8F0A37414F090034F747281
:103D8300F0A37414F090035174AEF0A37414F00212
:103D93003C8074F4120A5874F91210A28A088B0931
:103DA3008C0A8D0B851882851983780812124A7440
:103DB300041212D9E9F074051212D9E4F074061250
:103DC30012D9E4123DD512139A7407023EF5E8F0B6
:103DD300A3E9123DD922123D3AAA82AB832274F49D
:103DE300120A588A088B098A828B83125D05EE4F6B
:103DF3007003023EED900312124FC060158A828B4E
:103E030083A3A3E0F9EEFAEFFB90031312423212FD
:103E130027018E828F83A3A3A3A3A3A3A3A3A3E0BA
:103E2300640270748E828F83A3A3A3A3A3A3E0541D
:103E3300027003023EBF850882850983A3A3E06461
:103E4300E960798E828F83A3A3A3A3A3A3A3A3A3D0
:103E5300A3E070149010CDE0048E828F83A3A3A3FC
:103E6300A3A3A3A3A3A3A3F08E828F83A3A3A3A33C
:103E7300A3A3A3A3A3A3E014123EEFA3A3A37404D9
:103E8300F09010CE125740E8F0A3E91268198B0B9B
:103E9300EA450B70031261F78E828F83A3A3A3A35A
:103EA300A3A3A3A3A3E0640260128E828F83A3A3C0
:103EB300A3A3A3A3A3A3A3E06406702E8E828F8380
:103EC300A3A3A3A3A3A3E0A2E0501F8508828509AF
:103ED30083A3A3E0F9EEFAEFFB1225E28E828F8330
:103EE300A3A3A3A3A3A3E054FEF0800912413622A7
:103EF300740D1210247F04020D0C74EC120A587412
:103F0300DD1210A2EAFEEBFF8C088D097437121242
:103F1300D9780C121277750A0074051212D9AC8283
:103F2300AD83121C1674121212D9E07008741512A4
:103F330012D9E0602074051212D9E0A2E6501E8E59
:103F4300828F83A3A3A3A3A3A3A3A3A312543A126D
:103F5300172AE96008790312249E02411C74051292
:103F630012D9E0540C64047005750B018003750BC2
:103F730000E0A2E55035750A01E50BA2E0402C12E2
:103F830016B88A108B11A810A911123C87E068702B
:103F930003A3E069601574051212D9126CF8125468
:103FA300361225EEE96004790480AC74051212D947
:103FB300E0A2E6502274061212D9E054037018747A
:103FC300051212D9E0540C640C600CE0540C640824
:103FD3006005751001800375100074051212D9E095
:103FE3005403F8740268700C126CF81254361226DB
:103FF3006002411C740168703AE510A2E05003129C
:10400300412474051212D9A882A98374031212D908
:10401300E8F0A3E912471E85188285198312412E01
:10402300E0C0E074021212D9D0E0123DD51226D2BC
:1040330002411CE8600302411C90035FE0640170CD
:10404300108E828F83A3A3A3A3A3A3E07003023FD5
:10405300AA74221212D9740212471E741A1212D9A8
:10406300123D4EE510A2E0500874051212D9124118
:1040730024E50BA2E0506AEE240FF582EF1263BC35
:10408300C0E074171212D9D0E0F0900314124FC09D
:10409300700302411C1216B88A128B13A812A913BB
:1040A300741A1212D9E0687003A3E069706B780C7C
:1040B300121009780A1210157808121011A9107439
:1040C3000C1212D9AC82AD8374211212D9AA82AB1D
:1040D3008390031412422F122701740712102480B5
:1040E30038780C121009780A12101578081210117A
:1040F300900375120E0CEE2412F582EF1260EA742F
:10410300231212D9AC82AD83740E1212D9AA82ABD8
:10411300831225D674091210247423121024026703
:10412300E4126CF81258D51226F022E8F0A3E91233
:1041330041362212413A22F08E828F83A3A3A3A396
:10414300A3A32274F7120A58121E9E023CB874F7F6
:10415300120A58121EA4023CB874F7120A58121E0F
:10416300B0023CB8C082C083121EAA023C8074F71E
:10417300120A58121EB6023CB874F7120A58740990
:104183001212D9E0F5087808121015121EC2740134
:10419300023CB5C082C083121ECE023C80C082C0E6
:1041A30083121ED4023C8074F7120A58121EDA02DC
:1041B3003CB874F7120A58EAFEEBFF8908740165EC
:1041C30008701479001214EA902B01E493FC79002F
:1041D300EEFAEFFB121460023CB874F4120A58743E
:1041E300F91210A2E9FE8A088B098C0A8D0B74134D
:1041F3001212D912543A90059A124FC06027EE85D5
:104203001882851983F074011212D9780812124AA0
:10421300EAF8EBF974051212D9123DD190059A12FE
:10422300422F122701023DCCFB90034BE0F8A3E0A1
:10423300F583888222C082C083121F0A023C8074E5
:10424300F7120A58901084E0F97E00800B1263A8DD
:10425300540D64017001190E12443C5003E970EDD2
:10426300023CB874F7120A58901085E0F97E00807A
:104273000B1263A8548D64817001190E12443C50D3
:1042830003E970ED023CB874F2120A58890BE97520
:10429300F006A4240CF508E5F012371F8A0CE50894
:1042A300250CFAE5093400FB121CFA8A0C8B0DAEBF
:1042B3000CAF0DEE4F6027AC08AD097900121C5E00
:1042C300123C87E50BF0EE2508F8EF3509F98E82ED
:1042D3008F83A3A3A3A3A3A3A3A3A3123D4EEEFA89
:1042E300EFFB02523574F6120A58EAFEEBFF121482
:1042F3003C901083E0F8E9C39840099003451254B9
:104303003A121442EE2402F8EF125A4A900347126B
:104313005904900347E004F0EEFAEFFB12144885CA
:104323000882850983E0025F00C082C08379009020
:10433300034580010912543A8A828B83E5824583BF
:1043430070F2023C8074F7120A58EAFEEBFFEE4F5C
:104353006056900345124FC0604E888289837A006D
:104363007B00EE65827003EF6583600FAA82AB83E7
:104373001243AEE5824583602F80E79003451243E5
:10438300BA687002EF698E828F837008123D429083
:10439300034580031267F6123D4EEEFAEFFB122639
:1043A300A2EEFAEFFB121D00023CB81243B2221236
:1043B300472E888289832212472AEE22C082C08335
:1043C300900345800488828983124FC0600B8882E2
:1043D3008983124A72EC4D70EC8A828B83E4F0A3DA
:1043E300F0E8496006888289838003900345123C84
:1043F300C8023C8074F7120A5890034580048A82ED
:104403008B831244374B60257E0080010E12443C9F
:1044130050ECEE75F006A4FCADF0EA2CFCEB3DFD90
:10442300EC2410F582ED12448C70E180047A007B59
:1044330000023CB81258D9EA22124495EEC39822DE
:1044430074F7120A587D0080010D124491EDC39850
:104453005034ED75F006A4FEA8F0E8FFEA2EFEEB5B
:104463003FFFEE2410F582EF12448C70DCED75F003
:1044730006A4FEE8FFEA2EFAEB3FFBEA2411F582DD
:10448300EB1263BC4CF0023CB81263C869221244BD
:104493009522126D02EB3400F583E0F82274F612D4
:1044A3000A581215627A007B008025EAF8EBF9E8D6
:1044B30075F006A4F8ACF075F006E9A42C1258AE1A
:1044C300126BC3A3E41259A4F0A3126BC9126D407B
:1044D300902AEC12339E40D37A007B00801C8A081A
:1044E3008B09740378081211D1125362A374FEF07E
:1044F300A304125784A3E4126D40902AF512453F9A
:1045030040DC7A007B00801D8A088B0974037808DD
:104513001211D174C8126034740F12687B74FEF0E8
:10452300A304126D40902AFB12453F40DB902AFF03
:10453300E493900353F0124549023D57E493F8C3C3
:10454300EA98EB9400227CE87D037A107B009003C9
:10455300C2E0F9121DB42274F0120A5874F5121055
:10456300A28A088B09890A8C0BE9A2E0501475080A
:10457300FC7509FFA2E15005D2E402461CD2E30216
:10458300461C1252217003A3E069700579000246AC
:10459300E9AC0A7902AA08AB0912153EE960EDE518
:1045A3000AF50C780C12101579027CFE7DFFAA081F
:1045B300AB09124F9C121024E960030246E7E50A97
:1045C300C2E5F50A9003B5E07051E50AA2E6404B57
:1045D30074031212D9AC82AD83AA08AB091212EC90
:1045E300E970321248BD8A0C8B0DA80CA90DE8FEA8
:1045F300E9FFE8496025EE24020A0AEF1230AE60B3
:104603001AEE2402FCEF3400FD74031212D9AA82BD
:10461300AB831224B6E50AD2E5F50A900348E0F528
:104623000C900368E0F50EA3E0F50F780E1210115D
:104633007D017C00900348E0F9AA0EAB0F1214F63B
:104643007402121024E9F8900348E004F0E86003D0
:104653000246E7E50AA2E55004740E80027406C020
:10466300E074011212D9D0E0125D168A0E8B0FAEE0
:104673000EAF0FEE4F606912470712471E888289FB
:10468300837401F07478550AA3126D08E50C126D5A
:1046930008A3E508F0E5091246F6E4F0E50AA2E509
:1046A300500F74031212D9AC82AD83E8240612466C
:1046B300ED8E828F83A3A374FDF0A374FFF0E50B4B
:1046C3006015902B02E493F8E50BC3985009EE2490
:1046D30013125CE9E50BF0EEFAEFFB12138E800682
:1046E3007910800279C7740B8049FAE93400FB1210
:1046F30024B62288828983A3A3A3A312470222128A
:104703005A7DA322EE2417125CFA7401F01216B23A
:10471300EE241A125CFAEAF0A3EB22F0126CFC34DA
:104723000012472822F58312472E22E0F8A3E0F96E
:1047330022740D1210247F08020D0C74F6120A580D
:104743007A007B1012620460089003D47401F08035
:104753002990063BE064019010CB7006E0FC7901E0
:104763008004E0FC79037A007B00121460902AEA4B
:104773001247807A007B1012478E023D57124784FE
:1047830022E493FC740193FD227B009003C2E0F9C1
:10479300121DAE2274EC120A588A088B098C0C8DF8
:1047A3000D890E74141212D912517B74161212D978
:1047B300E0F510A3E0F51112172AE960077AFF7BF1
:1047C300FF0248BA9010CAE0640260030248AD7960
:1047D30000AA08AB09121544A90E1215388A128BC8
:1047E30013AE12AF13EE4F70030248958E828F8380
:1047F300A3A3A3A3A3E064018E828F83A3A3706901
:1048030012543A8E828F83A3A3A3A3A3A3E05418C5
:104813006043902B00E4938E828F83A3A3A3A3F022
:10482300EA650C7003EB650D6014EA650A7003EB2F
:10483300650B600AEA65107003EB6511701F781051
:10484300121011AC0AAD0BAA0CAB0D121826740290
:1048530012102480089003671261EEA3F074FE6ABD
:10486300700374FF6B601D804EA3A3A3E064036019
:10487300298E828F83A3A3A3A3A3E0640470057A84
:10488300FE0247C28E828F83A3A3A3A3A3E0640285
:1048930070089003B4E0640270101248BD8B0BEAF9
:1048A300450B6006AA08AB09800DAA08AB09900363
:1048B3004912422F1227010267E4900375124FA297
:1048C3001217EA2274F7120A58EAFEEBFF1213409A
:1048D300E9700AEEFAEFFB12134CE96006EEFAEF09
:1048E300FB80047AFE7BFF023CB874F0120A588AFC
:1048F3000A8B0B8C0E8D0F890975080012172AE994
:1049030079006003024A64AA0AAB0B121544A90991
:104913001215388A0C8B0DAE0CAF0DEE4F60198E4D
:10492300828F83A3A3A3A3A3E0640270559003B46F
:10493300E064027003024A62AA0AAB0B90034F12AF
:10494300422F1227011213528A0C8B0DA80CA90DAA
:10495300E8497003024A6288828983A3A3A3A3A3BD
:10496300E0A2E04003024A62750C01A2E1506879BB
:1049730001AC0AAD0BAA0EAB0F121490E9706402DE
:104983004A628E828F83A3A3A3A3A3E0640370056B
:10499300750C0280528E828F83A3A3A3A3A3E0642A
:1049A300016003024A62900375124A728E828F83FA
:1049B300124DC78A0C8B0DA80CA90DE84960D19044
:1049C3002AF9E493FA88828983E0C39A50C2A3E068
:1049D3006003024A6280B988828983A3A3A3A3A345
:1049E300D2E1F0EE4F603A8E828F83A3A3A3A3A3F9
:1049F300A3E05418602B7508018E828F83A3A31242
:104A03000E0C750CFE750DFF780C1210117900ACAD
:104A13000AAD0BAA0EAB0F121556740412102480A4
:104A23003E900368E0650E7004A3E0650F70149078
:104A33002B01E493FCA909AA0AAB0B1214607508B5
:104A430001801CA90CAC0AAD0BAA0EAB0F1214907B
:104A5300E9700C750801A909AA0AAB0B1214EAA99B
:104A630008024739E50C2415F582E50D125CFD12A9
:104A7300575A2274EA120A5874F01210A28A0C8B45
:104A83000D8C088D0974261212D9E0F514A3E0F5F4
:104A9300157512069003F5124FC06023900375122B
:104AA3004A72AA08AB091218148A108B11EA45112D
:104AB300600D8A828B83A3E070057900024DAFE518
:104AC3000C241DF50EE50D3400F50F850E82124FF3
:104AD300ACF51388828983A3A3A3E0FA8882898330
:104AE300A3A3A3A3E0F9EA2400FEE439FFAA08ABD9
:104AF300091214F0850E82850F83124DEAE029F521
:104B03000BE50AA2E5500375120E7487550A701758
:104B13007418550A6418600FE50C2417F582E50D27
:104B23001263BC65126007790112249E808C530ABC
:104B330078C3EE94F8EF94FF501D7900EEFAEFFB83
:104B4300124DB9601288828983A3A3A3A3A3A3E010
:104B530054186003024ABD78081210117D00124DEB
:104B6300DD121024E9F87403687003024ABDE8609B
:104B730003024C287418550A7003024CDDE50AD26F
:104B8300E0F50AA2E45004D2E1F50AA90A1254336B
:104B9300124DB9605388828983A3A3A3A3A3A3E07F
:104BA3005418604488828983A3A3A3A3A3E0640168
:104BB3007036E51045116030900375124A72888291
:104BC3008983124DC78A0E8B0FA80EA90FE849607F
:104BD3001788828983A3E0600F851082851183A3E0
:104BE300125F0B5003024ABDE50AF50E780E121050
:104BF30015124DD0121024E9702B7C007D00851412
:104C03008285158374FFF0A3F0850C82850D83A341
:104C1300A3A3A3A3A3A3A3E06003124A67A90B1250
:104C23005433121EC8851482851583E0F47003A3E0
:104C3300E0F460399003B4E064027003024ABD12E9
:104C4300516CE0FAA3E012422B122701EA650870C7
:104C530003EB65096003024ABDEEFAEF12422B1221
:104C63002701851482851583EAF0A3EBF0780812F7
:104C730010117D01124DDD121024A90AEEFAEFFB8B
:104C83001215448A088B09A808A909900368E068EB
:104C93007003A3E0696003024DA0EEFAEFFB121369
:104CA300528A088B09A808A909E849606E88828995
:104CB30083A3A3A3A3E06401600D88828983A3A3D4
:104CC300A3A3E064027054851882851983AC82AD76
:104CD30083EEFAEFFB1212EC8055900361E0600F54
:104CE300E50AF50E780E121015124DD0121024E5B8
:104CF3000AF50E780E12101579027CFE7DFFEEFA8E
:104D0300EFFB124F9C121024E96003024C28851418
:104D13008285158374FFF0A3024C6F1216B2EAFC6E
:104D2300EBFD851882851983AA82AB831224B6858D
:104D33000C82850D83A3A3A3A3A3A3A3A3E0640170
:104D4300700F124A6774081212D9AA82AB83122415
:104D5300B6124F76125B824430F5087808121015AC
:104D630074011212D98582088583097808121011FB
:104D7300740B1212D98582088583097808121011E1
:104D8300E513F50878081210157900EEFCEFFD1213
:104D9300543312148A7406121024024ABD124F7639
:104DA300125CEC124DEAE50BF01216CA74101210E5
:104DB300247F0E020D0C1215388A0E8B0FA80EA934
:104DC3000FE84922A3A31258D9121814227901AC6F
:104DD30008AD091258CE124F9C22AC0BA9131258DE
:104DE300CE1214F6740222125B8AA3A3A3A3227425
:104DF300F0120A5874F01210A28A0C8B0DECFAED23
:104E0300FB750F089003F5124FC06014125F048AFC
:104E1300828B83E58245836007A3E07003024F71B1
:104E2300124F763400124FACF50B88828983124FF0
:104E33007FE0FBEC2400FEE43BFF88828983A3A38D
:104E4300124F7FA3A3E0FBECF508E43BF50988824E
:104E53008983A3A3A3A3A3A3A3E0F50EE50AA2E476
:104E63005003750F10A2E550067408250FF50F7453
:104E73008F550A700FE50C2417F582E50D1263BCFC
:104E8300650F6008790112249E024F71530A7078EE
:104E930000E50AA2E45022124F761263BC2408FCF8
:104EA300A3E03400FD74081212D9AA82AB83122442
:104EB300B67808E50AC2E4F50AE50AA2E550281225
:104EC3004F761263BC28F8A3E03400F9E82408FC09
:104ED300E93400FD851882851983AA82AB831224E5
:104EE300B6E50AC2E5F50AAC0EA90BEEFAEFFB1222
:104EF30014FCE9F87403686075900368E06E70034E
:104F0300A3E06F605EE87054E50AF50F780F1210A6
:104F130015124F8D121024E97054780A121015746B
:104F2300011212D985820C85830D780C121011742D
:104F33000B1212D985820C85830D780C121011E5A2
:104F43000BF50A780A121015A90EAC08AD09EEFA92
:104F5300EFFB12148A740612102480127404687012
:104F63000D80B7780A121015124F8D121024741089
:104F7300024736E50C241DF582E50D22A3A3A3E029
:104F8300FC88828983A3A3A3A322790112517312FC
:104F93005CFD124FA2124F9C221214B4740122E042
:104FA300FCA3E0FDAA08AB0922F5831243B2A3E0F8
:104FB300F50A88828983A3A3E02290033912593525
:104FC3002274E8120A5874F51210A2EAFEEBFF8C61
:104FD300088D09891474231212D9E0F50F74241271
:104FE30012D9E0F512A3E0F51374261212D9E0F5F5
:104FF30016A3E0F51774281212D9E0F50EA90F12C3
:1050030015028A108B1174011212D97408F0E50E7F
:10501300A2E450037410F0E50EA2E55004E0240866
:10502300F0851882851983AA82AB831217128A0C22
:105033008B0DEA450D7003025153EA2417F582EBF9
:105043001251651216B2E50C241AF582E50D125CB5
:10505300EC123CC874031212D9AC82AD83AA10AB14
:10506300111212ECE9601D12515D74031212D9A8DA
:1050730082A983E50C2418F582E50D125CECE8F0B7
:10508300A3E98024E50EA2E4501FE5106E7003E54A
:10509300116F701512515DE50C2418F582E50D12A0
:1050A3005CECE512F0A3E513F012516C12517B8511
:1050B3000A82F5837402F0A3E50E125183E50FF023
:1050C300EE850A82850B83A3A3A3F0EF850A82856D
:1050D3000B83A3A3A3A3125183A3A3A3E508F0E522
:1050E30009850A82850B83A3A3A3A3A3A3F0AA1014
:1050F300AB111214F0E92514850A82850B83A3A34F
:10510300A3A3A3A3A3F0750800E50EA2E45011AC7A
:1051130012AD13E50A2408FAE50B1246EF750808E9
:10512300E50EA2E55014AC16AD17E50A2508F8E51F
:105133000B3400F9E824081246ED850C82850D83B3
:10514300A3A3E510F0A3E511F0AA0CAB0D12138E87
:10515300740B1210247F10020D0CE50C2416F5823B
:10516300E50D125CFD7401F022125173125CFD22F5
:10517300E50C126D03E50D22E0F50AA3E0F50B2221
:10518300F0850A82850B83A3A32274F2120A588A3C
:10519300088B09ECFEEDFF890A7900125221700396
:1051A300A3E069700479018073750B01900368E0D3
:1051B30065087004A3E06509601F750B00780B1286
:1051C3001015A90AEEFCEFFDAA08AB0912176674C5
:1051D30001121024E9F50B80417900EEFAEFFB127E
:1051E3001538EA4B602B8A828B83A3A3A3A3A3A3C3
:1051F300E05418601C7508FE7509FF780812101139
:105203008A828B83A3A3120E0C126B1812102480B4
:10521300097901EEFAEFFB121412A90B801412158F
:10522300448A0C8B0DA80CA90D900368E068221228
:1052330010247F06020D0C74F4120A5875081075B9
:10524300090E7A101268208B0BEA450B7003124586
:1052530049900353E014F0700C902AFFE4939003F9
:1052630053F01215507E007F00806C8508828509FB
:1052730083A3A3A3A3E06059F46056E5082404F5CF
:1052830082E5091261E87049850882850983A3A331
:10529300A3A3A3E0640370197902850882850983B7
:1052A300124A72850882850983A3A312543A121401
:1052B30090850882850983A3A3A3A3A3E064016067
:1052C3001085088285098374FEF0A304125394E4C5
:1052D300F01238C5123717902AEE12697C408C7E83
:1052E300007F0080391216588E088F0974037808DE
:1052F3001211D174882508FC740F3509FD7A9C7B43
:1053030014121646EA4B70DD8E088F097403780871
:105313001211D1125362126BC3E4F01238C5902AF2
:10532300F5E493F8C3EE98EF9400501B8E088F09B1
:10533300740378081211D112536AE82407F582E93D
:105343001261E870D680A17E007F00800A12537537
:10535300600214F01238C512697940F1023EF81266
:10536300536A888289832274882508F8740F350963
:10537300F922EEF8EFF9E875F006A4F8AAF075F053
:1053830006E9A42AF9742828F582740F39F583E015
:105393002212539BA3A3A322F0850882850983A32A
:1053A300A32274F7120A5874E11210A2ECFEEDFF67
:1053B300750800EE4F60728A828B83E0241C1262B0
:1053C30019124FC060638A828B8312543A85188204
:1053D300851983AC82AD83EA241BF582EB1260EA64
:1053E300EA241CF582EB12543612169A740B12122D
:1053F300D912543E7003A3E069702E74021212D9BD
:10540300E064017024741D1212D912422FE064016A
:105413007017741D1212D9124231A3A3E0F88E82C1
:105423008F83E0687003750801A908741F023CB5F7
:105433001251733400F5831258D92212306CE0688C
:105443002274F4120A58E97024790090034D124231
:105453002F1227018A0A8B0BAE0AAF0B74FE6E70F4
:105463000374FF6F701A902AFCE493601379019020
:10547300034D12422F1227018A0A8B0BAE0AAF0B80
:105483001216D6023A2D74F6120A5874F31210A2A9
:10549300121C708A088B09AE08AF09900368E06E8E
:1054A3007003A3E06F60E91216BEEA6E7002EB6F41
:1054B30060DEEEFAEFFB12172AE970D4EE4F60D0EC
:1054C300851882851983E4F0041212D9EEF0A3EF54
:1054D3001254ECE970BA74FE6E700374FF6F60B01F
:1054E300EEFAEFFB740D023D54123DD91213042260
:1054F300C082C0831216D6023C807F0A020D0C7450
:10550300F2120A58EAFEEBFF8C0A8D0B8908740E1F
:105513001212D9E0F50974FC6E700374FF6F700505
:10552300790002523579001215448A0C8B0DAE0CAA
:10553300AF0D900368E06E7003A3E06F7006E5099A
:10554300A2E650DCA909126A06706179007AFE7B33
:10555300FF126A067056741855097003025639789B
:105563000079008003123266902AEE12325D400306
:10557300025639E8FAE9FBEA75F007A4FAACF075CC
:10558300F007EBA42CFB74162AF582740E3BF5830B
:10559300E0541870D0E875F007A4F8AAF075F00786
:1055A300E9A42AF9741028F8740E39F988828983DA
:1055B300A3A3A3A3A3A3E054186009741855097007
:1055C3000302552388828983EEF0A3EFF074FE650E
:1055D3000A700474FF650B60031257608882898325
:1055E300A3A3A3A3A3A3E509F0A2E0500D88828996
:1055F30083A3A3A3A3A3A3D2E2F0740165088882C3
:105603008983A3A3A3A3A370387401125784E0541E
:10561300186028902B00E49388828983A3A3A3A313
:1056230012574E1218148B0DEA450D6003025523D1
:105633007800790080397902025525900367E0806C
:10564300D7E06401700302552388828983A3A3A34F
:10565300A3A3A3E054186007902B00E49380049065
:105663000366E01246F6E508F0025523123266900F
:105673002AF6E493FAC3E89AE99400400302552317
:105683007A007B00804BEAFCEBFDEC75F007A4FC91
:10569300AEF075F007EDA42EFD74122CF582740E96
:1056A3003DF583125D05E8FCE9FDEC75F017A4FCFC
:1056B30085F00975F017EDA42509FD74A02CF5827A
:1056C300740C3DF583E06E7003A3E06F609E1237A8
:1056D3009A902AEE12372740AD124780EC6A700287
:1056E300ED6B7088E875F017A4F8AAF075F017E968
:1056F300A42AF974A028FE740C39FF7C177D007965
:1057030000EEFAEFFB121C5E8E828F8312576690B7
:105713000375125740A3A3A3A3A3A3E8F0A3E9121D
:1057230057467401F0EE240E125CE9740112576EB1
:10573300120800EE240D125CE9E802566B123C9845
:10574300A3A322F0EE240F125CFA22F0125757AAF9
:105753000AAB0B22900375E0FCA3E0FD228882894B
:1057630083A3A3E50AF0A3E50BF022F012577322FB
:10577300902AF9E4932401F8E43400F97A027B00D7
:1057830022124702A32274ED120A588A088B098950
:105793000E1258B740057905025885121F10AA0842
:1057A300AB09125989902AEC125888650A7003E9EB
:1057B300650B70077AFE7BFF125989902AECE4127D
:1057C3005890E50A98E50B994003025883125894C0
:1057D3006012E50A75F006A4F875F006E50B125899
:1057E300DF121D00E50E6018E50A75F006A4F8AA9D
:1057F300F075F006E50B12590B701A790102588502
:10580300E50A75F006A4F8AAF075F006E50B125840
:10581300ECE4F0A3F0E50A75F006A4F8AAF075F03D
:1058230006E50B1258ACA3125B9888828983A3AA5E
:1058330082AB831258FA8A828B83E0603F125894BA
:10584300603A8E108F11751200781012100DE50E4C
:10585300C333FCE433FDE50A75F006A4F50AA8F0AA
:1058630075F006E50BA428F50B742C250AF5827454
:105873000F350B1254381237381210247900800276
:105883007907026A1C1233BFE822902AE41263A349
:1058930022E50A75F006A4F8AAF075F006E50B12E6
:1058A30058E7F8A3E0F9E84922A42A125A4088826B
:1058B3008983A322ECFEEDFF902AF7E493F8E9C372
:1058C3009822F5831258D9121D0022E50C126D039C
:1058D300E50D3400F583E0FAA3E0FB221258E7FA62
:1058E300A3E0FB221258ECE022A42AF9742C28F539
:1058F30082740F39F58322E50EF09010CC1259040F
:1059030022E088828983F022125A64F50CE934007C
:10591300F50DE50EC333FAE433FB121CFA850C8252
:10592300850D83EAF0A3EBF0850C82850D83125974
:10593300352212472EE8492274F4120A58ECFEED80
:10594300FF740C1212D9123D428808890912598931
:10595300AC0AAD0BECF8EDF9902AEC1259915021F9
:10596300E875F006A4F8AAF075F006E91258ACE061
:105973008E828F831259A412599A123D4E79008058
:10598300027904023EF81214C68A0A8B0B221237DC
:1059930030C3EC9AED9B2212472A8508828509833E
:1059A30022125A792274F6120A587E007F00802848
:1059B300EEF8EFF9E875F006A4F8ACF075F006E937
:1059C300A42CF9742A28F582740F1266276A7003CF
:1059D300A3E06B60571238C512697940D31269741A
:1059E3007002E96F704674FE6A700374FF6B703C5B
:1059F3007E007F0080031238C5126979502E12533E
:105A03007570F3EEF8EFF9E875F006A4F8125A365C
:105A1300125A6B6017125A52F8E9125A4A888212C4
:105A230058C5850882850983E4F0A3F0EEFAEFFBFD
:105A3300023D5775F006E9125A3E22A42AF974284A
:105A430028F8740F39F9223400F98808890922EEFD
:105A5300F8EFF9E875F006A4F875F006E9125A6450
:105A630022125A3EE8240422A3A374FE125A761289
:105A7300593522F0A304125A7D22F088828983A328
:105A8300A3A3A32274F6120A58EA241DF582EB128B
:105A93005B82F9604BEA241DF582EB1263BC24029E
:105AA300FCA3E03400FD1258BB4003025B75780091
:105AB30080298C828D83E0F508A3E0FFE5082400AC
:105AC300E43FF509E833FEE433FF74702EF5827486
:105AD3000F3FF583125B98125B7808E8C39940D2B5
:105AE3008A828B83A3A3A3A3A3A3A3A3A3124A7210
:105AF300900368E06C7003A3E06D700F7C707D0F02
:105B0300122FD51254361214BA8067EA2411F58283
:105B1300EB1263BC605CFC74FF2CF0750801780821
:105B230012101575087075090F7808121011E9F530
