:020000040000FA
:060000000212940207B891
:03002B000210BB05
:03003300020E6C4E
:03004300020F5752
:030053000206E9B9
:03006B00020E5230
:1000830002074D0101FF05030132183218321832FD
:1000930018EE16E81632186726000000002B27001A
:1000A3000000000C0000000C00010000001A00001A
:1000B30000000000BA1A0000000000000000000069
:1000C300FFFF320A00010101002005000000710555
:1000D300E80364006400B80102020008000005029E
:1000E30007051E02051E0A03B80B020102F1FF02F7
:1000F3009651180002020612303132333435363746
:10010300383941424344454600286E756C6C207073
:100113006F696E74657229003F3F3F000000807F66
:100123000000803FF9021550B743BA510000204147
:1001330000E7DB2E0000A0401000000008000000D4
:100143000A0000001212E060461212B3603DE96833
:100153007008F618F618F618F622748067F712017D
:100163007B090909748067F7221212B3601D12120A
:10017300E07005191919801A12112D701F121157E9
:10018300C37003E6673319191940071818182208B2
:10019300080874FFF618F618F618F62212115760BD
:1001A3001712131F702192F0121329701950172080
:1001B300F014080808090909E7F61819E7F61819E9
:1001C300E7F61819E7F62212132960E6E869701FAB
:1001D3000808E62480F608E436F618547FB47F0C4A
:1001E300E654806007F6E418F618F622181822E998
:1001F300C6CC08C6CD08C6CE08C6CFC0E0E8C0E06E
:10020300EAC0E0EBC0E009E9F809E7FA09E7FBE631
:10021300F918E6F8C3EC98ED99EE9AEBC2E7F5F01E
:10022300EFC2E795F0500E600CEBCFFBEACEFAE994
:10023300CDF9E8CCF8EAA2E7D2E7FAEB33FB13F502
:10024300F0EEA2E7D2E7FEEF33FFC5F013A2E730EB
:10025300E601B313C5F0C3C0E0C0F07F00C39BFB4E
:10026300605B9418600C401AD0E023F9D0E0F802E8
:10027300034A8AF0E9486003D2F0E4AFF0FAF9F8F0
:10028300803BEB30E40D89F0EA6003D2F0E4AFF099
:10029300F9CAF8EB30E30D88F0EF6002D2F0AFF06B
:1002A300E4CAC9F8EB54076014FBC3EA13FAE91371
:1002B300F9E813F8EF135002D2E0FFDBEDD0E0C012
:1002C300E030E739C3E49FFFF5F0EC98FC42F0ED32
:1002D30099FD42F0EE9AFE42F0D0E0F9D0E0F8E565
:1002E300F0607AE923F9EE20E742D8028067C3EF92
:1002F30033FFEC33FCED33FDEE33FE80EAEC28FCF8
:10030300ED39FDEE3AFED0E023F9D0E0F84002806B
:100313001BC3EE13FEED13FDEC13FCEF135002D2DF
:10032300E0FF08B800067F7F74FF802EEF3350177D
:100333008CF020F00260100CBC000C0DBD00080E08
:10034300BE000408E860DFE933E813FFEE2313FE81
:100353004F4D4C8008E95480FFE4FEFDFCEE33EF83
:1003630033F47004FCFD7E80D0E0FBD0E0FAD0E0F3
:10037300F8D0E0CFC618CEC618CDC618CCC6F92221
:100383001212B37004181818221212E0700D74FFC1
:10039300F61819F61819F61819F622E7548066F6B6
:1003A300121329700F12131F70F014F608F608F6D3
:1003B30008F680D112131F700CF608F60876800831
:1003C300E6447F80EC12115A700C12113060BFE6C4
:1003D3005480F6E480BB121130700519191980A5F9
:1003E300E869700C763F18768018F618F6E8F9225B
:1003F300E6CDC0E018ECC0E0E633CD33CDD313F641
:10040300E719FCE7191933CC33C3947F400ECD9D14
:10041300502408E65480F6E418F6800FF4043D14E3
:10042300501408E6447FF6187680E418F618F6D0E0
:10043300E0FCD0E0FD22CCD313CCFD18E4C6CBC046
:10044300E018E4C6CAC0E00808ED08C633E613F6B0
:1004530018E433C675F003C3CA97CA09CB97CB19FF
:100463009C40047D08802EBD000302052C16B6FFB8
:10047300050606081618C3CA33CACB33CB33CA27BB
:10048300CA09CB37CB193CC37D08803E187D0820B1
:10049300E75CC633C6CA33CACB33CB33DDF1D5F001
:1004A300EB30E77BCA97CA09CB974ACB199C406FBD
:1004B3004B7025E620E0218066187D08C3CA97CAE1
:1004C30009CB97CB199CD3C633C6CA33CACB33CB1C
:1004D3003350C9DDE7D5F0E1D3E4C636C608C636E6
:1004E300C608C636C608C636C61818188031C3CA29
:1004F30097CA09CB97CB199CB34097C633C6CA3367
:10050300CACB33CB33DD34D5F02EC6A2E0C640C808
:10051300CA27CA09CB37194A70BECB3CB480B90885
:1005230008E63308E633601F181818D0E0FAD0E065
:10053300FBD0E0FCD0E0FD22187D08CA27CA09CB16
:1005430037CB193CD3808013F618E4B67F11F61825
:10055300B6FF0EF618C60470D20808768080CAF675
:1005630018F618F680C5001212B3604F1212E0603D
:1005730012E7548066F612112D701112131F703B8F
:10058300090909F4F618F618F618F622121157702D
:100593001512132908080860EAE6447FF6187680E6
:1005A30018E4F618F622121329601612131F70129C
:1005B300E4F608F608F608E65480F609090918185F
:1005C3001822EAC0E0EBC0E0ECC0E0EDC0E0E68753
:1005D300F0A4FBACF008E687F0A42CFCE435F0FAB9
:1005E3001809E687F0A42C4B60027401CA35F0FCAD
:1005F300E433FB09E687F0D2F7A42CCB35F0FC19E2
:1006030008E687F0A42BCC35F0FBE433FD0819E6AC
:1006130087F0D2E7A42C4ACB35F0CD3400FC09E6B1
:1006230087F0D2E7A42DCC35F0FDE433FA0918E6C0
:1006330087F0D2F7A42CCD35F0CA3400FC08E68746
:10064300F0D2E7D2F7A42ACC35F07A7E20E70B0A62
:10065300CB33CBCD33CDCC33CC33CB33501470042D
:10066300ED30E00ED2F1E4CD3DCDCC3CCC3B50059A
:10067300DA05C2F1EB547FC63308E63392F0FBE7A9
:100683003309E733C39A502D2B70190C0D4C4D7061
:10069300151806E608C333700D20F10AA2F013F60D
:1006A300E418800B4024E4F630F002768018F61844
:1006B300F618F68024D33B14501074FFA2F013F6FF
:1006C300187680E418F618F6800FA2F013F618E6F1
:1006D3003303F618ECF618EDF6D0E0FDD0E0FCD0CD
:1006E300E0FBD0E0FA22C0E074F2120AD8A2AFE431
:1006F30033FED2AFE5A7FFE5A1F5085F541060060E
:1007030012211A75A1EFE5085F5408600812212031
:1007130075A1F7802BEFA2E0C0D0E508A2E092F02C
:100723001211E2158182F05017906198E0F8900859
:100733004AE0C398A2D265D0335002E8F075A1FE17
:10074300EEA2E092AF7F01020B37C0E074F2120A0F
:10075300D8A2AFE433FED2AF9061A4E0F8759B005A
:10076300E59158540860087591F7122168802AE5CD
:100773009158541060087591EF12216E801BE8A206
:10078300E0C0D0E591A2E092F01211E2158182F06F
:100793005007E0C2E0F01222B29061A3E0F8E5E96D
:1007A300585404600E12228875E9FB906193E0A20D
:1007B300E640F2808BC0E074F2120AD8A2AFE433B1
:1007C300FED2AF9061A5E0F8E5BF5854046006750A
:1007D300BFFB1222CA020743C3E498F8E499F91253
:1007E300081C8026C3E49AFAE49BFBE920E7E9129C
:1007F300081CE498F8E499F922C3E498F8E499F919
:1008030012081CE498F8E499F9C3E49AFAE49BFB10
:1008130022EB20E7CFE920E7E0B90010BB0008E8AE
:100823008AF084F8AAF022E4FBC8FA22EB70227B58
:1008330010C833C8C933C9335007C39AC3DBF28026
:10084300069A50012ADBEAC833F4C8C933F4C9FA5B
:100853002275F008E4C833C8C933C933C99AC99BA0
:100863005004C92AC93BD5F0ECFBC833F4C8E4C92A
:10087300FA221208B520F01430E72B74FFFCFBFAC0
:10088300747F8022E4FCFBFA7480801AB48008BC75
:1008930000F2BB00EF800F50EBF9E4C39AFAE49B3C
:1008A300FBE49CFCE499C6CC18C6CB18C6CA18C690
:1008B300F922E4C9C608CAC608CBC6D3330308CC99
:1008C300C63392F0C3947F402E94184019C9B907D8
:1008D30004CACBCC225025C309CA33CACB33CBCCF1
:1008E30033CC33D9F422F4600DC9CCC313CB13CB6F
:1008F300CA13CAD9F6CC22E4FCFBFA2214FCFBFA95
:1009030022080808EAC0E0EBC0E086F0E7A4FA1882
:100913000986F0E7A42AFA180986F0E7A42AFA1848
:100923000986F0E7A42AFA1986F0E7A4FBE5F02A82
:10093300FA190886F0E7A42BFBE5F03AFA190886C2
:10094300F0E7A42BFBE5F03AFA18180986F0E7A4C0
:10095300C5F02BFBE43AFA1908E7C5F0C6A426F65E
:10096300E5F03BFBE43AFA1886F0E7A4F6E5F00875
:1009730026F6E43B08F6E43A08F6D0E0FBD0E0FACA
:1009830022080808E630E71112119512099C08089D
:1009930008C64480C618181822181818E9799EC684
:1009A30008CAC608CBC608CCC6C370207996CACB82
:1009B300CC7019798ECBCC70137986CC700EF980FC
:1009C3002ACA33CACB33CBCC33CC331930E7F2CC7E
:1009D300CBCA3350147004EA30E00DE4CA3ACACBF0
:1009E3003BCBCC3CCC500209C3E913C6CC18231330
:1009F300C6CB18C6CA18C6F922E4CFC0E0E4CEC0FD
:100A0300E0E4CDC0E0E4CCC0E075F020C3E633F60B
:100A130008E633F608E633F608E633F6181818EC5A
:100A230033FCED33FDEE33FEEF33FFC3EC9709EDFB
:100A33009709EE9709EF97191919400FFFEC97FCE7
:100A430009ED97FD09EE97FE191906D5F0BEECF7EF
:100A530009EDF709EEF709EFF7191919D0E0FCD002
:100A6300E0FDD0E0FED0E0FF222518C582C0E0E51E
:100A73001934FFC583C0E0E518C3958224F810AF8D
:100A8300088583198582188008858319858218D281
:100A9300AFCEF0A3E520F0A37808E608F0A3DEFAD2
:100AA300EFF0A3E58124FAF8E608F0A3E608F0A343
:100AB300E608F0A30808E608F0A3E608F0A315810A
:100AC3001581D0E0FED0E0F8158115811581E8C0CD
:100AD300E0EEC0E022C0D02518C582C0E0E519349D
:100AE300FFC583C0E0E518C3958224F310AF0885E2
:100AF30083198582188008858319858218D2AFC827
:100B0300F0A3E9F0A3EAF0A3EBF0A37908E709F077
:100B1300A3D8FAECF0A3EDF0A3EEF0A3EFF0A3D08B
:100B2300E0F0A3D0E0F0A3D0E0F0A3E520F0A3E54C
:100B3300F0F0A322851983851882E0C0E0A3E0F9D1
:100B4300A3E0FAA3E0FBA37808E0F608A3DFFAE04A
:100B5300FCA3E0FDA3E0FEA3E0FFA3E0C0E0A3E06D
:100B6300C0E0A3E0F5D0A3E0F520A3E0A3F5F010E7
:100B7300AF088583198582188008858319858218B3
:100B8300D2AFD082D083D0E0F8D0E032121314B9C0
:100B93000003020BD1E490030178A1790A8002F0EB
:100BA300A3D8FCD9FA900CA1AA82AB8390008678D3
:100BB300C279018015E493A3AC82AD838A828B83CF
:100BC300F0A3AA82AB838C828D83D8E9D9E775829F
:100BD300387583A9740312101A7582D0758325742E
:100BE3000012101A0875F0108E1A8F1B85821F854C
:100BF300831E851882851983E0CEA3E0CF851F82EB
:100C0300851E83EBC9EAC8EDCBECCAC3E833C8E958
:100C130033C9EA33CAEB33CBC3EA9EF51DEB9FF529
:100C23001CB35004AB1CAA1DEC33CCED33CDD5F073
:100C3300DAAE1AAF1B221212B3601C1212E0601755
:100C4300121329700712131F7001D322C0D012137D
:100C53001F7006D0D0B322C32233D0D0501430E05B
:100C6300F6C3E7960809E7960809E7960809E796A1
:100C7300B32220E0D5E6970809E6970809E6970826
:100C830009E697B3221212B3601B1212E060161228
:100C93001329700712131F600CB322C0D012131F45
:100CA3007005D0D022C32233D0D0501330E0EBC331
:100CB300E7960809E7960809E7960809E7962220C8
:100CC300E0E4E6970809E6970809E6970809E69736
:100CD30022D083D082ECC0E0EDC0E0E493A3FCE437
:100CE30093A3FDED4C600D120DACEC24FFFCED3431
:100CF300FFFD80EFE493A3FCE493A3FDED4C600DB3
:100D0300120EDCEC24FFFCED34FFFD80EFD0E0FDA0
:100D1300D0E0FCE493A3C0E0E493C0E02285198310
:100D2300851882E0A3FEE0A3F5207808E0A3F60887
:100D3300DFFAE0A3FFE0A3C0E0E0A3C0E0E0A3C0CC
:100D4300E0E0A3C0E0E0A3C0E010AF08858218850F
:100D530083198008858218858319D2AFD083D08206
:100D6300021020D083D082E9C0E0E493A3C386F0CD
:100D7300C5F095F0F908E493A386F0C5F095F070FB
:100D83000BE493A3C3994005E9048002A3E475F03F
:100D930002A42582F582E5F03583F583D0E0F9E4FA
:100DA30093A3C0E0E493C0E022C0E0C3E4939608B9
:100DB3007401939618400FE49366700808740193C6
:100DC300661870007019A3A3C3E493960874019383
:100DD3009618A3A3400DD0E0D0E0D0E0020D10A3FD
:100DE300A3A3A3A3A3D0E022D083D082C5F0E4932E
:100DF300A3C5F0C395F0F5F0E493A3C395F04005C4
:100E0300E5F0048001E475F002A42582F582E5F0A3
:100E13003583F583E493A3C0E0E493C0E022740434
:100E2300800474028000CCC0E0EDC0E0E518C39CF0
:100E3300CCAD1950011D10AF068C188D1980068C8E
:100E4300188D19D2AF120F9CD0E0FDD0E0FC22C068
:100E5300E074F2120AD8E589A2E15003121FF47577
:100E63008900C2C57F01020B37C0E074F2120AD8B1
:100E7300E58BA2E05003121FF4758B00C2E880E4F7
:100E830074028000CCC0E0EDC0E0E518C39CCCAD9B
:100E93001950011D10AF068C188D1980068C188D02
:100EA30019D2AF120F7AD0E0FDD0E0FC221212B3B8
:100EB30060251212E06020121329700302131F0829
:100EC3000808E76670101819E766700A1819E766CC
:100ED30070041819E76622F422C0E0C0F088F0E439
:100EE300936670080874019366187000A8F0A3A3B2
:100EF300700BD0F0D0E0D0E0D0E0020D10A3A3D06F
:100F0300F0D0E022D083D082CCC0E0E493A360068B
:100F1300120FBD1470FAE493A360061210EC147060
:100F2300FAD0E0FCE493A3C0E0E493C0E022C0085D
:100F3300C3E096F50808A3E096420808A3E09642AA
:100F43000808A3E0964208A2D265D033E5087001F1
:100F5300D3D00822C0E074F2120AD8A2AFE433FE61
:100F6300D2AFC2C0E5D1A2E45003122090EEA2E0BA
:100F730092AF7F01020B37CAC0E0E493A3C582CCD2
:100F8300C582C583CDC583F0A3C582CCC582C58385
:100F9300CDC583DAE5D0E0CA22CAC0E0E0A3C582AA
:100FA300CCC582C583CDC583F0A3C582CCC582C51C
:100FB30083CDC583DAE6D0E0CA22C0E0E493A3D3AD
:100FC3009C5010E493A3C39C400AD0E0D0E0D0E04F
:100FD300020F24A3A3A3D0E022700908080822600B
:100FE30016181818C6C333C608C633C608C633C690
:100FF30008C633C6D5E0EA22C008C3E096F5080860
:10100300A3E096420808A3E096420808A3E09645A9
:10101300087001D3D00822C09FF59FE473D09F22AC
:10102300D083D082C09FE493C0E0740193C0E07486
:101033000293F59F227404800A740380067402806D
:10104300027401C0E0F404121053D0E01212EF2234
:101053002518F58210AF08F518400215198008F518
:101063001840021519D2AF85198322C0D025181054
:10107300AF08F518500205198008F5185002051934
:10108300D2AFD0D022BB0102E722C082C0838982C3
:101093008A83BB0003E08002E493D083D082226082
:1010A30016080808C6C313C618C613C618C613C63F
:1010B30018C613C6D5E0EA22C0E0C0D0E8C0E0E518
:1010C300A8D2AFC2C7A2E792AFD0E0F8D0D0D0E0A9
:1010D30032C3E0C696F608A3E0C696F608A3E0C6B8
:1010E30096F608A3E0C696F622C0E0E493A36C70DC
:1010F30009D0E0D0E0D0E0020F24A3A3D0E0222562
:101103001810AF08F518400215198008F5184002A9
:101113001519D2AF22E066701008A3E066700A08C2
:10112300A3E066700408A3E06622181818E60846D0
:1011330008700AE608C3337005E633F4220822E791
:101143006670100809E766700A0809E76670040804
:1011530009E76622191919E7094709700AE709C35C
:10116300337005E733F4220922C3E09608A3E0961F
:1011730008A3E09608A3E096A2D265D03322C3E089
:1011830096F008A3E096F008A3E096F008A3E09693
:10119300F022181818E4C396F608E496F608E496C5
:1011A300F608E496F622E026F608A3E036F608A34E
:1011B300E036F608A3E036F622E026F008A3E03690
:1011C300F008A3E036F008A3E036F022E627F6089D
:1011D30009E637F60809E637F60809E637F622C0C6
:1011E300E0E8C0E0E58124FCF8E6A2E7D0E0F8D02F
:1011F300E022E657F60809E657F60809E657F60827
:1012030009E657F622E056F608A3E056F608A3E0EF
:1012130056F608A3E056F622E647F60809E647F62F
:101223000809E647F60809E647F622700422600D2E
:1012330018C6C333C608C633C6D5E0F41822E05631
:10124300F008A3E056F008A3E056F008A3E056F038
:1012530022C3E09608A3E09608A3E09608A3E096CD
:1012630022C6F4C608C6F4C608C6F4C608C6F4C641
:1012730022600D08C6A2E713C618C613C6D5E0F34D
:1012830022C3E7960809E7960809E7960809E7964F
:101293002275D00075814075180175190300020B82
:1012A3008FE6F008A3E6F008A3E6F008A3E6F02231
:1012B300E6084608C3134608336002E633F42260A7
:1012C3000C08C6C313C618C613C6D5E0F422E0F64D
:1012D30008A3E0F608A3E0F608A3E0F622E709472F
:1012E30009C3134709336002E733F422CAC0E0E6B7
:1012F300F0A308DAFAD0E0FA22EAF0A3EBF0A3ECC9
:10130300F0A3EDF022E0FAA3E0FBA3E0FCA3E0FDF1
:1013130022E5C754F84401F5C7790122E7C333191D
:10132300471947194722E6C3331846184618462279
:101333002518F582E43519F58322C2AF75D69F02CD
:10134300000022121023868202121023C18202128D
:1013530010230583021210232C83021210237D8392
:10136300021210232D8402121023E584021210238B
:10137300AD85021210238A860212102310870212EF
:1013830010231F87021210232A8702121023338887
:1013930002121023448802121023BA880212102367
:1013A3004C8902121023A489021210236A8A0212A2
:1013B30010239B8A02121023E08A02121023ED8A63
:1013C30002121023818C02121023E48D02121023C7
:1013D300008F021210236A910212102375910212D8
:1013E30010237F91021210238A91021210239491E9
:1013F300021210239E9102121023A99102121023AC
:10140300B49102121023E5910212102309920212E1
:1014130010232D9202121023929202121023D692BD
:1014230002121023F2920212102369930212102364
:10143300A19302121023ED93021210234A94021275
:1014430010232C9602121023B296021210238397B4
:1014530002121023939A02121023E89A0212102305
:10146300149B02121023609C02121023B09C0212E0
:101473001023059D02121023069E021210239E9E26
:1014830002121023209F02121023C09F0212102366
:101493004C29001210238529001210235F2B001200
:1014A30010239E2B00121023E82B001210238D2CE7
:1014B30000121023EC2C00121023202D00121023F5
:1014C3008D2D00121023AA2E00121023B22F00120A
:1014D30010234830001210238F33001210233834A6
:1014E3000012102314350012102375350012102337
:1014F300923600121023BC380012102373390012E5
:1015030010237D3900121023B03900121023773ACB
:1015130000121023123B00121023773B00121023FA
:10152300A03B00121023C23B00121023F13D001216
:101533001023C83E001210230C3F00121023793FE2
:1015430000121023344000121023664000121023AF
:10155300AA4000121023DD40001210233241001272
:1015630010238741001210231B42001210237D42D7
:1015730000121023E542001210238E4400121023A0
:10158300764500121023B84600121023E6480012D5
:101593001023A64900121023D54B00121023784CB8
:1015A30000121023B64C00121023624E00121023B7
:1015B300764E00121023804E00121023AA4E001202
:1015C3001023B64E00121023D54E001210238C4F59
:1015D30000121023CB4F00121023D54F00121023FB
:1015E30089500012102388510012102381520012D7
:1015F30010231E5300121023C05300121023D7537D
:10160300001210230E54001210232C540012102326
:101613007054001210239554001210237B550012AE
:101623001023E75500121023615600121023705740
:1016330000121023AF580012102311590012102367
:10164300CB5900121023EE5900121023C25A001274
:1016530010230D5B001210234F5B00121023A65BB7
:1016630000121023DD5B001210230B5C0012102309
:10167300445C00121023695C00121023F15C001219
:101683001023145F00121023735F001210230760EE
:1016930000121023736000121023C760001210237E
:1016A300BBCD03121023FACD03121023C4BA0112C7
:1016B30010231EBB011210237ABB01121023C6BBD9
:1016C30001121023E1BB0112102312BC01121023DB
:1016D3002FBC011210233BBC01121023AFBD01121A
:1016E3001023C8BD011210232FBE0112102342BEC6
:1016F3000112102350BE0112102304BF0112102344
:10170300E8BF01121023EEC00112102374C10112AD
:1017130010237EC101121023EBC10112102302C258
:101723000112102334C2011210236DC201121023BF
:1017330097C201121023F8C20112102318C3011219
:10174300102336C3011210237CC301121023A2C439
:1017530001121023EFC4011210231EC5011210231E
:1017630094C501121023BCC501121023F5C5011243
:10177300102303C6011210235BC601121023AAC64D
:1017830001121023E9C60112102319C701121023F5
:1017930045C70112102350C7011210236EC701124F
:1017A300102330C8011210233AC80112102375C840
:1017B300011210238BC80112102394C801121023A5
:1017C300E9C801121023FDC8011210230BCA01122C
:1017D30010231ECA0112102333CA01121023D5CAC3
:1017E3000112102358CB0112102316CC011210231F
:1017F30021CC0112102347CD0112102363CD011216
:101803001023B5CD01121023F4CD0112102309CEFC
:10181300011210234BCE0112102398D00112102372
:1018230016D10112102389D101121023ABD3011257
:101833001023C3D301121023C6D301121023D2D312
:1018430001121023E6D301121023EED30112102349
:1018530021D401121023D1D40112102347D5011230
:101863001023BAD5011210236ED60112102323D7E9
:101873000112102342D701121023E2D701121023C1
:10188300EED70112102319D8011210231CD801120C
:10189300102386D801121023AED90112102386DA41
:1018A3000112102311DB011210232ADC0112102371
:1018B300E7DC0112102320DD0112102351DD011298
:1018C3001023F1DD0112102321DE01121023FCDEAF
:1018D3000112102395DF0112102320E001121023BF
:1018E300D1E00112102353E10112102385E101120B
:1018F3001023C6E101121023E7DB021210234CDC94
:101903000212102389DC02121023D8DC02121023E6
:10191300EEDE02121023D1E0021210233BE4021286
:10192300102376E40212102398E402121023FBE43E
:10193300021210232FE50212102352E50212102384
:101943007FE502121023DBE50212102322D00212DC
:101953001023A0D002121023D6D00212102342D19A
:1019630002121023B5D202121023D1D20212102375
:1019730016D302121023A4D302121023FDD3021292
:1019830010232AD5021210233CD60212102399D613
:101993000212102305D70212102366D70212102356
:1019A300A7D70212102354D80212102366D90212A9
:1019B300102391D902121023DCD90212102323DA47
:1019C30002121023B5DA0212102370DB0212102365
:1019D300D0C203121023E1C20312102332C3031235
:1019E300102377C30312102321C403121023FFFE15
:1019F3000212102302BE031210235ABF0312102334
:101A03004F7500121023F475001210231476001280
:101A13001023347600121023487600121023A07688
:101A230000121023D07600121023517800121023D5
:101A3300F77800121023D979001210232A7A0012A2
:101A430010236D7A00121023B07A00121023167B34
:101A530000121023377B00121023C37B00121023C4
:101A6300F47B00121023687C00121023167E0012F0
:101A73001023F07E00121023327F001210238C7F7C
:101A83000012102379BA031210239ABA03121023F7
:101A9300D0BB03121023FABB03121023A9BF0312F6
:101AA300102324C0031210232FC00312102350C08D
:101AB30003121023B9F201121023BCF201121023F6
:101AC30076F301121023A1F301121023E8F301129C
:101AD30010230DF4011210232EF40112102362F4CB
:101AE300011210239BF401121023C4F501121023D9
:101AF300FBF5011210231BF601121023B6F6011297
:101B030010237BF701121023B2F70112102327F9D8
:101B130001121023CAF901121023C3FA0112102370
:101B2300ECFA0112102340FB0112102306FC0112F0
:101B3300102334FC01121023C9FD011210234AFEA5
:101B4300011210237DFE0112102327E60212102337
:101B530031E6021210237DE602121023EBE6021295
:101B630010230CE70212102323E702121023D3E7FA
:101B73000212102367EA0212102370EA02121023E2
:101B8300C3EA02121023ECEA0212102353EB0212EF
:101B93001023E4EB0212102326EC0212102370EC44
:101BA30002121023CFEC02121023D1B3011210231F
:101BB3009FED02121023DEED0212102313EE021228
:101BC300102325EE0212102337EE0212102356EED5
:101BD300021210235FEE0212102315EF02121023DC
:101BE30055EF021210235A93031210232D9403125C
:101BF30010234794031210235894031210236D9655
:101C0300031210238C960312102347B803121023D8
:101C13007DB803121023C6B80312102316BA031299
:101C230010230161001210236082021210237C62D0
:101C3300001210233B64001210236464001210236B
:101C4300F766001210233B6700121023C4680012CA
:101C530010235C6900121023C46900121023656A03
:101C630000121023A76A00121023E76A0012102340
:101C7300726C00121023E26D001210230770001221
:101C830010233570001210235C700012102365704E
:101C930000121023C070001210235371001210237E
:101CA300717400121023F274001210234FCF031229
:101CB300102370CD03121023C0A203121023D3A24A
:101CC3000312102370A303121023ABA303121023D8
:101CD300C6A303121023EBA30312102330A4031291
:101CE300102361A40312102392A40312102318A635
:101CF3000312102399C503121023CFC50312102317
:101D0300EBC5031210232DC6031210233DC6031285
:101D13001023D2C603121023DCC603121023BAF811
:101D2300021210237FF9021210233EFA021210232B
:101D330092FA02121023A9FC021210231DFD0212B3
:101D4300102337FE0212102357FE0212102393C0F2
:101D530002121023EBC00212102395C102121023AA
:101D63003DC2021210239AC202121023F3C20212BE
:101D7300102307C302121023D1C4021210234CC52F
:101D83000212102376C50212102333C70212102346
:101D93004EC7021210239DC702121023B3C70212AB
:101DA3001023C0C702121023F4C7021210230AC85B
:101DB3000212102390C8021210239FC8021210238C
:101DC300F8C80212102352C902121023A0C902122A
:101DD3001023AACA021210232CCD02121023C6CD3F
:101DE3000212102308CE021210239DCE02121023DA
:101DF300BACE02121023BDCE02121023C0CE02129D
:101E0300102333CF021210234ECF021210237ACFA6
:101E130002121023B5CF02121023B8CF02121023DF
:101E2300CBCF02121023F2CF02121023EDCC0312F8
:101E33001023F9CC0312102333CD03121023C2B0A5
:101E430002121023EDB002121023B9B102121023B3
:101E53003EB202121023A7B202121023F3B20212EF
:101E6300102372B30212102304B40212102390B48D
:101E730002121023D2B4021210233EB9021210230D
:101E8300BEBA02121023FDBA02121023C6BB0212FD
:101E930010237ABC021210232ABE02121023B6BEEC
:101EA30002121023FBE101121023B5E201121023E9
:101EB30027E30112102336E301121023B0E30112CA
:101EC30010231FE40112102329E50112102352E508
:101ED30001121023F2E50112102340E60112102330
:101EE300B0E601121023E4E701121023C0E8011247
:101EF300102331E901121023AEEA0112102370EB13
:101F0300011210230BEC0112102366EC01121023B3
:101F1300D1EC01121023D5ED0112102396EF01121B
:101F2300102335F001121023A7F00112102364F1DE
:101F330001121023FDAB0312102351AC0312102323
:101F4300A9AC03121023F4AC0312102356AD0312F1
:101F53001023EFAD0312102357AE0312102363AE09
:101F630003121023F1B50312102322B60312102318
:101F7300DCB60312102342B703121023B3B70312C4
:101F83001023C3A9031210234FAB031210234CCA0F
:101F9300031210235DCA03121023FDCA0312102378
:101FA3004ABC0312102358BC0312102365CF03123B
:101FB300102357CC0312102367CC0312102382CCB7
:101FC30003121023E3CC03121023F6FE0112102395
:101FD3007BFF01121023DFFF011210233AC9031202
:101FE30010235CC903121023C6C903121023D1C9DD
:101FF3000312102315CA03121023E59703121023AB
:10200300F397031210233498031210234E980312EC
:102013001023D89803121023FD98031210231A9942
:10202300031210233799031210235C990312102310
:10203300849903121023CC9903121023479A031295
:102043001023F79A03121023B69B03121023C49B89
:10205300031210233E9C03121023229D031210230C
:10206300DB9E031210230FCF0312102300800312F1
:1020730010236D80031210232E81031210239E81DF
:1020830003121023A782031210231F8403121023A9
:10209300838403121023D88403121023E1840312D0
:1020A3001023F084031210230385031210231985D0
:1020B30003121023228503121023358503121023E4
:1020C3008A8503121023868703121023B88703120D
:1020D3001023DA8703121023F387031210230C88CB
:1020E30003121023168903121023B189031210233C
:1020F30038C4031210235CC40312102375C40312E3
:102103001023A8C403121023D9C40312102307C534
:102113000312102369C50312102378C50312102379
:1021230082C5031210238FC5031210239EAE031220
:102133001023C4AE0312102301AF0312102310AFF8
:10214300031210232FAF0312102397AF0312102390
:10215300A0AF03121023FFAF0312102323B0031207
:102163001023E2B003121023EFB00312102300B1C7
:102173000312102348CE0312102365CE031210233B
:10218300288A03121023868B03121023938B0312C6
:102193001023A68B03121023C58B03121023DB8B92
:1021A30003121023EF8B03121023648C03121023EA
:1021B300C98C03121023798D031210234E8E031240
:1021C30010235E8E031210236D8E031210231ECB79
:1021D3000312102342CB031210236ACB03121023E2
:1021E30092CB031210232EB10312102355B1031205
:1021F300102376B103121023DBB10312102394B31F
:1022030003121023ADB303121023B9B30312102327
:10221300CDB303121023EBB303121023F5B3031250
:102223001023FFB30312102312B40312102365B457
:10223300031210239EB403121023CDB403121023F0
:102243001BB5031210236AB50312102385B50312BD
:1022530010238FB503121023A0B503121023E6B584
:1022630003121023A07F001210237EEF021210230B
:10227300A8EF02121023C4EF02121023D7EF0212A9
:102283001023EDEF021210234AF0021210237DF007
:1022930002121023B9F402121023DFF502121023E5
:1022A30012F6021210235EF6021210238AF70212AC
:1022B3001023B2F702121023C7F702121023D7F725
:1022C300021210231BF8021210237CF802121023AF
:1022D3008CF802121023F4C6031210230FC7031243
:1022E300102338C70312102352C70312102377C7D2
:1022F3000312102396C703121023AEC70312102331
:10230300DCC703121023F6C70312102304CE0312F3
:102313001023409F03121023479F0312102353A03F
:102323000312102383A003121023A9A00312102366
:10233300CCA003121023EEA00312102328A1031232
:1023430010238EA103121023C7A10312102313A27B
:102353000312102340A20312102360A203121023BE
:1023630043C10312102355C10312102340C20312A9
:102373001023CDC20312102327C80312102399C8B8
:1023830003121023D7C80312102318C903121023F2
:1023930025A60312102341A60312102390A60312AD
:1023A3001023ACA603121023DDA603121023EDA6FF
:1023B30003121023D9A703121023E3A70312102338
:1023C300F0A70312102300A90312102314A9031268
:1023D30010231DA903121023A68E03121023EB92C0
:1023E30003121023F09203121023BACE0312102308
:1023F300B7CB03121023E1CB0312102384CE0312B5
:102403001023E7CE0312102331CF0312102373A03E
:102413000212102391A502121023DAB20112102323
:10242300BEB2011210234EB20112102305B20112E3
:102433001023BDB101121023FBB0011210236EB0A3
:102443000112102361B0011210236FAD011210238A
:10245300C1AA01121023478202121023F381021230
:10246300102395A901121023E9A8011210234F810B
:1024730002121023C580021210233AA7011210235F
:10248300F5A4011210237CA40112102323A401122A
:102493001023B7A3011210238EA30112102381A1CD
:1024A300011210234DA1011210231AA101121023AE
:1024B300FEA00112102324A001121023DC9F01129D
:1024C3001023119E01121023919D011210238E9D42
:1024D30001121023959C01121023639C01121023F7
:1024E300A09B01121023CB99011210235C990112B6
:1024F30010232E99011210236480021210231280DC
:10250300021210230080021210237FB9011210233C
:1025130061B9011210232B9901121023189901128A
:102523001023B098011210239F980112102316B89C
:10253300011210238097011210234A9701121023CE
:102543000D9701121023AE960112102373B70112D7
:1025530010234062001210237D960112102338933A
:1025630001121023299201121023B8910112102392
:102573007D91011210234891011210233C91011205
:1025830010239C9001121023E38F01121023B68DA8
:1025930001121023428B01121023008B011210230E
:1025A300CB8901121023808901121023B2880112F2
:1025B3001023098801121023A58701121023DF8736
:1025C3000112102320B60112102360ED0200000057
:1025D30080FBE473000136360101000102010001B2
:1025E300030100010401060605020000070100348F
:1025F3000801000F090401010D0100FF0E0800008E
:1026030017020000190100FF1A0100011B0100FE5F
:102613001C0100081D0200001F0100012001000130
:10262300210200002301000F240200002601000103
:1026330027010008280200FF2A0100072B0102409E
:102643002C0100002D0100012E0100012F0100FFCC
:1026530030010B1C310800003A0100083B01000F58
:102663002F010000030071003001600011007000B1
:1026730031022003500480001000610000001400A8
:102683006300730072006200430000001300060041
:102693000000000004001200000000000000000021
:1026A30004000400370037003C024400000000002F
:1026B30000000000650000003500810000000500F7
:1026C3000000830000000302710230016002110266
:1026D30070020102020202028002100261023A0049
:1026E3004100630273027202620243020002130298
:1026F300380000020002040212020002000200027B
:10270300000204020402370037003C0244020002C4
:102713003900000200026502000235028102000254
:102723000502820283020002010371030103010314
:102733000103010301032203020301031003000346
:10274300000300030003000300030003420300032C
:1027530024030603000300030403120325032303D6
:1027630025032303040304030003000300034403BA
:1027730000030003230300036503210035038103E2
:1027830000030503000300030003010171010101BC
:102793000101110101013101010101018001100158
:1027A30061013B0014006301730172016201430183
:1027B3000001130106013D0135000401120100016E
:1027C30000010001000104010401330133013C0154
:1027D30044013201360000010001650100013500AA
:1027E300810100010501820183010001360001001E
:1027F300060000000F0000000000000000000000C1
:10280300000003FFFF00000403FFFF0000FFFF0FB2
:10281300F4010005C4040320000100030B000000C1
:10282300000000000003010F0100E01E0200561E1D
:1028330003005C1E0400621E0500681E0600741E71
:1028430011008C1E1400921E1500861EFFFF00004F
:1028530003EAF5E5D5D5C5B5A59595858575756562
:1028630065555545453535252515150548177817FB
:102873004E1754177217661760177E1784178A1737
:1028830096175A1742173C170A141502DE1405F05F
:102893001407E4140CC0140DD214FF000000160F2B
:1028A30000000B150B020002220F32000006321843
:1028B30044184A18121750180C1718179218B01802
:1028C300B6189818A4189E180C0E020B040B0A07CE
:1028D30008000F303016181920231A1C1E3000016F
:1028E30019161816161523030000034948424D18FC
:1028F3001725050200383C3E363B3B352B432C3035
:102903003017181921301B1D1F30861856185C18F4
:10291300681862186C179017AA189C17A21702045C
:102923000201010101090200000000000000BE04D1
:102933000A0E00E803040015002800040C0503092F
:1029430008FF1E1E0A040F100C74F7120A6CE9909C
:1029530003B0F0900365E4F01223609003B5E4F054
:10296300A3F09003B1F0A3F012164C122366900368
:1029730034E4F0A3F090294993FA79021223C602B2
:1029830055E274F2120A6CEAFEEBFF548060699020
:1029930003B0E0F9121B8C8A088B09EA4509604FE2
:1029A3007C0080010CEC75F003A4F8A9F0748B286B
:1029B300F582742839F583E493F4602CE493F88565
:1029C30008828B83E06870DCAA08EC75F003A4F836
:1029D300748C28F582742839F583E493C0E074017C
:1029E30093F583D0821225D5AA08AB09121B80EE7A
:1029F300FAEF6480FB022B52EF5420601D12156E18
:102A03008A088B09EA4509600A1214D2AA08AB099D
:102A1300121B80EEFAEF642080DAEEA2E0501A90E7
:102A2300036AE0640F700B790012149CE9600312CF
:102A33002B55EE6401FAEF80BB54207003022B2068
:102A4300750C001240278B09EA450970107C027D42
:102A5300007A207B009003B0E0F9121CD67C007949
:102A6300047A007B0012154A8A088B0980188508AE
:102A730082850983A3A3A3A3A3A3A3A3A37401F0A0
:102A8300850A08850B09E5084509606D7C00790412
:102A9300AA08AB0912154A8A0A8B0B750C01E508C3
:102AA3002404F8E509123DCB24FFF0A3E034FF1220
:102AB30060BE70CC850882850983A3A3A3A3A3A3C7
:102AC300A3A3A3A3E0640170A5850882850983A35A
:102AD300A3A3A3A3A3E05404709485088285098368
:102AE300A3A3A3A3A3A3A3A3A37406F07AB7850800
:102AF30082850983122C81808712151A7C00790143
:102B03007A007B0012154A8B09EA45097009E50C26
:102B130070057A20124F81EE6420022A38EF5402A6
:102B2300600B121646EEFAEF64020229F7EF540423
:102B33006019125118125038790190036312539C93
:102B43001213E2EEFAEF64040229F77A007B000223
:102B53002D88900CEE12341F1214B422C082C0834D
:102B630074EA121102851882851983AA82AB8379CC
:102B73004B12239C74081213337402F0740912135A
:102B830033AA82AB83795012239C7413121333E458
:102B930012556B1223BA741602454574F7120A6C68
:102BA30074E1121102EAFEEBFFEE4F6033851882E7
:102BB300851983AC82AD831215927406121333E028
:102BC300601E7417121333E0FD7401121333E0FC1B
:102BD300EEFAEFFB7900122510E9600479A4800274
:102BE30079000255DD74F6120A6CEAFEEBFF8E8261
:102BF3008F83A3A3A3A3A3A3E05440601B125A5A39
:102C0300122D4F60067AFF7BFF801A8E828F83120C
:102C130041D1FAA3E0FB80031215B674FE6A700378
:102C230074FF6B6041125A5A124FC512160AE98E8D
:102C3300828F836006122C7AE48005122C7A740149
:102C4300F07CA27D148E828F8312539C1223C0E9E1
:102C5300F5087015EE4F60097901EEFAEFFB1215D6
:102C630026A908024FF67508CDAA088E828F831213
:102C73002C81E960DF80EAE0240D1246A022E024E3
:102C83000C1246A0E0F91214AE2274F6120A6CE993
:102C9300FEEAFF7A0F7B00121B7AEA4B60198A82E5
:102CA3008B83740CF0EEA3A3F0EF8A828B83A3F0E3
:102CB3001250217900802FEEF91215508A088B09E2
:102CC300A808A909E849601C88828983A3A3A3A350
:102CD300A3A3A3A3A37406125CE5E0F9121466EEA2
:102CE300F912152C7910024FF6C082C08390036A43
:102CF300E0640F7014EA4B6010900365E0640860B1
:102D030005E064047003122D0F02456FEAFCEBFD2E
:102D13007A017B009003B0E0F9121CD022C082C07C
:102D2300837900EA241DF582EB1241CE24FD600B6A
:102D330014600824FD600424FD70010902456F8EB0
:102D4300828F83A3A3A3A3A3A3A3A3A3122D53227D
:102D5300124216FB12160AE9228E828F83A3A3A3C3
:102D6300A3A3A3A3A3A3122D536402228E828F8352
:102D7300A3A3A3A3A3A3A3A3A3124566900356E00F
:102D8300682212106E7F06020D2074F4120A6C740E
:102D9300FD1211028A088B098A828B83A3A3E0F9AF
:102DA3001215508A0A8B0BAE0AAF0BEE4F7003025B
:102DB3002E94850882850983A3E064F16030850839
:102DC30082850983A3E064CD602485088285098315
:102DD300A3E0641A6018850882850983A3E064E987
:102DE300600C850882850983A3E064E1700879009B
:102DF300121526E9706C850882850983A3E0C0E07B
:102E03007402121333D0E012454AEEF0A3EF1238E6
:102E130075851882851983AA82AB8370051213CA3C
:102E230080031215F27402121333E064E970338ED7
:102E3300828F83122EA0750A01780A121044750A34
:102E4300E9780A121044E508240CF582E5091233E7
:102E530067123852FCA3E0FD8A828B8312386C120E
:102E6300106E8E828F83A3A3A3A3A3A3A3A3A3E024
:102E7300640270108E828F83A3A3A3A3A3A3A3A32F
:102E8300A37406F0850882850983A3A3E0F91215CC
:102E93002C12151A900CF2122B58023424E0F8A3CA
:102EA300E0F9E8FAE9FB2274F4120A6CEAFEEBFF9C
:102EB3007508008E828F83A3A3A3A3A3E06042754A
:102EC30008088E828F83A3A3A3A3A3A3A3A312445F
:102ED300798B0BEA450B601075082C8E828F83A3C8
:102EE300A3A3A3A3E0D2E0F08E828F83A3A3A3A323
:102EF300A3E0540364016003022F93430811022FDC
:102F030093EE24181234316033EE241A12343170E4
:102F13000F122D6F7003A3E069707575082280701E
:102F2300EE241BF582EF122F98241AF582EF123844
:102F33007DEE2419125A8E1214548054122D5C7093
:102F430003750801122D6F7003A3E0697006E5088D
:102F5300D2E1F508E50860158E828F83A3A3E070A4
:102F630006E508D2E58004E508D2E6F508122D420D
:102F730064017006E508D2E0F5088E828F83A3A36F
:102F8300E0600D122FA664016006E508C2E0F508B3
:102F9300A9080234291241BC122F9F22E0FCA3E0AE
:102FA300FDEE221241B61241EEF91215F8E922C0E4
:102FB30082C08379018A828B83A3A3E0C3940240F6
:102FC30001198A828B83A3A3A3A3E0C394024002C3
:102FD30079008A828B83A3A3A3A3A3A3A3A3A3E0C0
:102FE30064F87003A3E0F460458A828B83A3A3A3F0
:102FF300A3A3A3A3A3A3E064F97003A3E0F4602E47
:103003008A828B83A3A3A3A3A3A3A3A3A3E064FAAA
:103013007003A3E0F460178A828B83A3A3A3A3A303
:10302300A3A3A3A3E064FB7003A3E0F470027900FD
:103033008A828B83A3A3A3E0F8900353E068600222
:10304300790002456F74F0120A6C74DE121102EA01
:10305300FEEBFF8E828F83A3A3A3A3E0600E900CED
:10306300F0124FED6006900CF0122B5874031213FC
:1030730033AC82AD838E828F83A3A3A312506F12CE
:1030830058A8E9600F7403121333AA82AB83121496
:10309300CCE97008790112237202335CEE241B120F
:1030A30041C174101213331250387409121333E0F0
:1030B3006021741A121333E0FD7404121333E0FC1D
:1030C3008E828F8312539A7901122510E960047955
:1030D3000280C37403121333AA82AB831214C6E9AA
:1030E300F50A7409121333E0702A90034DE060244B
:1030F3007422550A6422601C7442550A644270CFDC
:10310300742012133312337A600A742012133312A9
:10311300337370BBE9A2E650417403121333AA82DE
:10312300AB831214BAE9700302309774201213337D
:103133001241D16403700F7420121333A3124FDFB3
:10314300A3E0640D60147403121333AA82AB8312D9
:10315300161CE96401700302335CEE242C12336401
:103163001236887003A3E069701C75080078081292
:1031730010447808121044EE242E125A8E12338013
:1031830012386C12106E7409121333E0700302329A
:103193003912338012539C1216708A088B09EA4540
:1031A3000970030232D67404121333E0F88E828F4F
:1031B30083A3A3E028F8A3E03400F9E8240D123335
:1031C3006B8A828B83A3A3A3E068601CE88A828B4B
:1031D30083A3A3A3F0908766121308850882850949
:1031E30083A3A3A3A31212FC7904E9121333125885
:1031F300852AF8A3E034008882F583A3AA82AB83EF
:10320300121B688A0C8B0D8C0E8D0F850882850925
:1032130083A3A3A3A3780C120FFB400302335C9098
:103223008762780C1211A9850882850983A3A3A359
:10323300A3780C1212A4900365E064046008E064B0
:1032430009600302335CE50AA2E54003023314EE8E
:10325300242E123431851882851983F0EE242F121F
:103263003431C0E07401121333D0E0F0EE24301295
:103273003431C0E07402121333D0E0F0741412132B
:1032830033E064017027740E1213331241C7EE2426
:1032930012123431687003A3E0697011740C1213B5
:1032A30033122D6970077414121333E4F0EE2424DF
:1032B300123364120E217404121333AC82AD83747F
:1032C30007121333AA82AB831213D0740412106E45
:1032D30002335C9003AAE064016003023239742074
:1032E30012133312337A7009E50AA2E6500302324D
:1032F300397410121333E0F47003A3E0F4605AEE50
:10330300FCEFFD7403121333AA82AB831214D8802B
:1033130048A2E6504474201213331253AB701A744C
:103323001A121333E0640270307403121333AA8247
:10333300AB8379001215E680207420121333123305
:10334300737016741A121333E06404700C7403124E
:103353001333AA82AB831215E07422025757EE246B
:103363000BF582EF1241BC22F582E9125051F8228B
:10337300125A6CE06407221241EE640622EE242AFC
:103383001241B9122F9F24121241B92274F4120A66
:103393006CEAFEEBFF8C088D099005CEE0600F12FE
:1033A3002D6F7003A3E0697005121442804F7900FA
:1033B30012538F1214728A828B83E58245836035A0
:1033C300A3A3A3A3A3A3E05418602AE508241BF531
:1033D30082E509123367120E25123A65123367121A
:1033E3000E25EE2418125A8E123402121484740419
:1033F30012106E8008790012340212144880278E4E
:10340300828F83A3A3A3A3A3A3A3A3A3122F9F2466
:103413000BF582EF12341B223400F583124216FBA4
:1034230022740312106E7F04020D20EE2417F5821E
:10343300EF1250512274F7120A6C74F7121102EA58
:10344300FEEBFF900365E06403600DE06401600838
:10345300E0640960030235028E828F83A3E0707EED
:103463007C007D007A027B0012236CEE2402FAEFCB
:10347300123DD21241C7900356125038795312238A
:10348300A27900123507E06409600312389A85189F
:1034930082851983740112500E9003657404F074CD
:1034A30001121333AA82AB83794A12239C7401124B
:1034B3001333AC82AD837A5B7B0312238A9003566A
:1034C30012589E7A031238A4900350E0A2E35004EA
:1034D300D2F08002C2F0124FFB122B55801E8E8257
:1034E3008F83A3AE82AF83FC7D007A037B1012230C
:1034F3006C8E828F83E0F9123507E4F012150274A3
:10350300090255DF90036312341F1213E29003651F
:1035130022C082C083900334124FED701F90036565
:10352300E014600924FC600A14600C800F90033CD3
:103533008032900338802D90033A8028E849600850
:1035430090033512384C700C8A828B83A3E0F912F6
:1035530013D6801B900335123B01700512163A8077
:103563000E9003D2124FED6006124FDF1225D502E3
:10357300456F74F4120A6C74FB1211028A088B09EA
:103583007A0F7B00121B7A8A0A8B0BAE0AAF0BEE03
:103593004F700302367C8E828F83125569795012E5
:1035A300239C850882850983A3E060030236649027
:1035B3000363E0F47003A3E0F46034900363E06416
:1035C300FE7003A3E0F46027851882851983123601
:1035D300887003A3E0696017850882850983A37453
:1035E300EA1238827A637B0379501223A2807285B0
:1035F3001882851983125A4D1250387A567B0379F3
:103603005312239C9003561250691250387A597BF7
:1036130003794B12239C7A587B0379E112239C9004
:10362300036AE0C3940F5021900358E0C0E0740292
:10363300121333D0E0F074041213337401F0041244
:103643001333AA82AB831223B4750A00780A1210CB
:1036530044780A121044900D14E0F91238631210E2
:103663006E850882850983123681A3F09003657401
:1036730003F0EEFAEFFB1250217405023426A3E0A7
:103683008E828F8322125A51E068221246A7227437
:10369300F5120A6C74D81211028A088B098A828B7C
:1036A30083A3A3A31241F37415121333AC82AD8326
:1036B3008A828B83A3A3A3A3A3A3A3A3123852FA3F
:1036C300A3E0FB1215087415121333E0706B850821
:1036D30082850983A3A3A3A3A3A3A3A3E0C3940BFA
:1036E30040578E828F83A3A3A3A3A3A3A3A3E064C2
:1036F300027046EE240B123431F4703D900365E002
:103703006402603AE064066035900334124FED6062
:103713000512384C604F900365E064086005E0646F
:103723000470167417121333E0F9741C121333ACBC
:1037330082AD8312538F12150E7428025F6B9003B0
:1037430034124FED701F7508007808121044780882
:10375300121044EE2410123364125AA6123EBA1207
:10376300386C12106E8E828F8312530B123DE4124B
:1037730041C77402121333125038EE240D12343140
:10378300C0E07404121333D0E0123875F508A3E0D7
:10379300F509740F78081212C27405121333E50881
:1037A300F07419121333E0C0E07406121333D0E03F
:1037B300F0741B121333E0C0E07407121333D0E02C
:1037C300F07416121333E0C0E07409121333D0E01F
:1037D300F07417121333E0C0E07408121333D0E00F
:1037E300F0EE2410123431C0E0740A121333D0E027
:1037F300F0741A121333E0C0E0740B121333D0E0E9
:10380300F07427121333E0C0E0740C121333D0E0CA
:10381300F0741C121333A982AA8389088A09750AD2
:1038230000780812103C7C087D007410121333AA30
:1038330082AB83124B9C12106E851882851983AA62
:1038430082AB831213DC02373C123B07640122E094
:10385300F98A828B83A3A3A3A3A3A3A3A3A3E02295
:103863009003631258A290035912341F1215C8749F
:103873000222F0EE240B12504E22125051FA22F083
:103883007A567B03795312388D221223A27A597BFD
:1038930003794B1223A22290036312341F12166A78
:1038A300227B0012236C9003591258A27A047B00E6
:1038B30012236C22F0125AB12274F2120A6C74F8B9
:1038C300121102EAFEEBFF8C0A8D0B890C8518821C
:1038D300851983AC82AD8375838775821974081249
:1038E3000F9CF50DEEFCEFFD851882851983AA82E6
:1038F300AB8312526C7003750D019003B1803BEEE4
:10390300FCEFFDE508240BFAE509340012526B6065
:103913001E850882850983A3A3E0650C70118508C1
:1039230082850983E0650A7004A3E0650B6038E5CE
:10393300082414F582E509123367123DDCE50845D6
:10394300096024E50DA2E040B6850882850983E07D
:10395300650A7004A3E0650B70D585088285098329
:10396300A3A3E0650C70C8AA08AB097408022D85EF
:10397300C082C0839003B102456C74F7120A6C9045
:1039830003B11242168012EA2414F582EB12336754
:103993001241F3121C1CEEFAEFFBEA4B70E99003A1
:1039A300B1E4F0A3F00255E27F07020D2074F11297
:1039B3000A6CEAFEEBFF890A8C088D098E828F83DD
:1039C300E08C828D83124483AE82AF83E0124C5C21
:1039D300124BCDC4124C5C123A6EE054038C828DB0
:1039E30083124BCBA2E2E4338C828D83124BCA1336
:1039F3001313541F124C5C124BC9A2E7E4338C829D
:103A03008D83A3A3A3A3123A6E8E0C8F0D750E00A4
:103A1300780C12103C7C087D00E50824071258112D
:103A230012106E12587C8E0C8F0D780C12103C7C89
:103A3300037D00E508240F12581112106EE50AC326
:103A4300940F40148E828F83A3A3A3E0C0E0123AA5
:103A530065123367D0E08006123A65125CD9F00232
:103A630039ABE5082412F582E50922A3A3124487A2
:103A73000EAF832274F4120A6C74F9121102EAFE77
:103A8300EBFF8908900334124FED600E123B017077
:103A930009EEFAEFFB121634805F900363E06E7059
:103AA30003A3E06F70537401650860097A777B03A1
:103AB30012526C70447A007B0212402B8B0BEA4546
:103AC3000B703690036612130885188285198312CA
:103AD30012FC90036CE0C0E07404121333D0E0F0E6
:103AE30074051213337401F07406121333125569FB
:103AF3001213A6E9609B1213AC7407023426123B1F
:103B030007640222125A6DA3A3A3A3A3A3E0227402
:103B1300F5120A6C8A088B098A828B83A3AE82AF63
:103B230083E0F91213FA8E828F83E064EB600C85D5
:103B33000882850983A3E064E17009850882850909
:103B430083A3E4F0122B55750A01780A12104485F9
:103B53000882850983A3E0F50878081210447900E8
:103B630012386312106E12151A025F6EEAF0A3EB9D
:103B7300F002456F74F6120A6C9003B4E0701B7C7C
:103B83000079017A007B0012154AEA4B600C8A82A5
:103B93008B83124FED60031214A8024FF6C082C04C
:103BA30083124013401079FF121544E9F890294B12
:103BB300E493C398500479018002790002456F743D
:103BC300F0120A6C8A088B09890B750C008A828BA8
:103BD30083A3A3A3A3A3A3A3A3E0F91215508A0E5F
:103BE3008B0FAE0EAF0F750A01EE4F6003023CA0C0
:103BF300850882850983A3A3A3A3A3A312589E8543
:103C03000882850983A3A3A3A3A3A3A312499C1298
:103C1300539C1215388A0C8B0DAE0CAF0DEE4F7002
:103C230003023DC38E828F83A3A3A3A3E4F0A3F077
:103C3300E508240B123DCFE0C0E0123361D0E0F081
:103C4300121610EE240CF582EF124FC1E508240E74
:103C5300F582E5091241C4EE240EF582EF125035C8
:103C6300750C01EE2406F8EF123DCB547FF0A3E070
:103C730054FC125B03E054046003023D26900CF6EF
:103C830012498D7407780812122E8E828F83A3A394
:103C9300A3A3A3A3E04508F0A3E04509F08E828F18
:103CA30083A3A3A3A3123DDA740778081212C2E513
:103CB300085407F508E50B607A8E828F83A3A3A3CC
:103CC300A3A3A3A3A3A37402124BCE240D12469C59
:103CD300E0A2E2500B900351125069A3A312503893
:103CE300E5087003023D98EE2406F8EF3400F9E886
:103CF300FAE9FB8A828B83E0547FFCA3E054FCFD4A
:103D0300E50824FFF508E434FFF509740778081281
:103D1300122EEC4508F8ED4509F98A828B8312507F
:103D23003880728E828F83A3A3A3A3A3A3E04480CE
:103D3300023C9FE5087005750A0080598E828F83C7
:103D4300A3A3A3A3A3A3E054206012121B74EA54F9
:103D53007F245F8E828F83A3A3A3A380238E828F6E
:103D630083A3A3A3A3A3A3E05410600A121B74EAC2
:103D7300540F240A80DD8E828F83A3A3A3A374012F
:103D8300F0A3E4123DE474041240228B09EA4509CE
:103D93007003124FB4E50CA2E050288E828F83A3E8
:103DA300A3A3A31255CFF9EEFAEFFB12153EE96078
:103DB30012124FE360031241ACEEFAEFFB121C1C2C
:103DC300750A00A90A02575A12512C22FAE509343E
:103DD30000FB8A828B8322A3A3E0F508A3E0F50905
:103DE30022123DE82212582DA3A3A3A3A32274F405
:103DF300120A6C74F71211027E00121550EA4B700E
:103E030003023EB38A828B83A3A3A3A3A3A3A3A387
:103E1300A3E064066003023EB38A828B83A3A3A359
:103E2300A3A3A3A3E0FF8A828B831246AFE0C0E083
:103E33007408121333D0E01241E712527212503851
:103E4300121562EF5408606685188285198312582B
:103E53009E7A007B001215328B0BEA450B704F9054
:103E630003631242D71223CC7C007D007A007B00CF
:103E730080288E828F831241D1F47003A3E0F46013
:103E83002D900363123EBA12539C1220C0E9641AA8
:103E9300601C7C007D00EEFAEFFB1215328A0A8B60
:103EA3000BAE0AAF0BEE4F70C979001223D27E011D
:103EB300EEF97409023426123EBE22E0FCA3E0FDB3
:103EC3008E828F8322C082C083EA4B70059003B534
:103ED30080068A828B83A3A31240D760258A828BB4
:103EE30083A3A3A3A3A3A3A3E0540860E5EC4D60BD
:103EF300158A828B831241D16C7003A3E06D70D25B
:103F030080047A007B0002456F74F2120A6CEAFEA9
:103F1300EBFF890A8C088D097A107B00121C16EAC4
:103F23004B603F8A828B83A3A3A3A3A3A3A3A3A3CF
:103F3300E41241D5A3E50A125A73A3123F6F8A8292
:103F43008B83A3A3A3A3E4F0A31241E1A3F012592B
:103F530007EA240CF582EB124473123F68A3A3F023
:103F6300A3F0022D88A3F08A828B8322A3A3E50802
:103F7300F0A3E509F02274F4120A6CEAFEEBFF8960
:103F8300088C0A8D0BEE4F60557401650870147927
:103F930001121544E9F8902943E493C398500F792B
:103FA30011806A74046508702F12401340F18E82E9
:103FB3008F83A3A3A3A3A3A3A3A3A3E5081244836B
:103FC300A3125FF88E828F83A3A3E4F0A3F0900380
:103FD300B5124FED6021800D7402650860D079C180
:103FE300802BE0F8A3125062A3A31240D7888289E2
:103FF30083A3A370ED80039003B5EEF0A3EF12400B
:10400300228B0BEA450B7003124FB479000234295B
:104013007904121544E9F8902940E493C39822F0F7
:10402300124027227A207B009003B0E0F9121CE2B1
:1040330022C082C083E9F879009003B5801D8A828B
:104043008B83A3A3A3A3A3A3A3A3A3E06860057483
:10405300FF687001098A828B83A3A31240D770DEA5
:1040630002456F74F7120A6CEA4B70059003B58032
:10407300068A828B83A3A31240D760248A828B8310
:10408300A3A3A3A3A3A3A3A3A3E06970E4EC601475
:104093008A828B83E0240D12588FA2E240D38004DE
:1040A3007A007B000255E2C082C0839003B580068C
:1040B3008A828B83A3A31240D760128A828B83A345
:1040C300A3A3A3A3A3A3A3E06970E580047A007B61
:1040D3000002456F12341FEA4B2274F2120A6C8AF3
:1040E3000A8B0B8C0C8D0D750800750900EA450BC6
:1040F300602E9003B580068E828F83A3A312412A7C
:10410300601EAC0CAD0DEEFAEFFB850A82850B83C6
:104113001225D5E9640170DFEEF8EFF98808890903
:10412300AA08AB09022D88E0FEA3E0FFEE4F22743C
:10413300F7120A6C9003B51241C77C007D00800D15
:10414300E8FCE9FD88828983A3A31241C7E849609B
:1041530030EA687002EB6970E79003B512539CE88C
:104163006A7002E96B88828983A3A370081241C72E
:104173009003B580091241C78C828D83A3A312508B
:10418300380255E274F7120A6CEAFEEBFFEE4F6059
:104193001512155C1241F9124FE360031241ACEEA4
:1041A300FAEFFB121C1C0255E2EE240C1241B91269
:1041B300420E22EE241DF582EF3400F58322F582B0
:1041C300EF1241BC12456622F582EF1241BC124147
:1041D300EE221241D922125A7BA3A3A3A322124196
:1041E300D9A3A322123F691241EE22125A66E0229A
:1041F300E0FEA3E0FF228E828F83E0241C1246A000
:1042030012420E8E828F8312420E22124216FB122C
:104213001C1C22E0FAA3E022C082C083EAFCEBFD6F
:10422300EC4D700479058044EC24FBF582ED34FFFA
:10423300124FEB7007124272E0F46005121B80808C
:10424300E39003B0E0C0E0124272D0E0F09029475F
:10425300E493F97AB77B031225CAE96401700B7AF8
:10426300007B20124FB879008002790402456FEC7D
:1042730024FFF582ED34FFF5832274F4120A6CA255
:10428300AFE433F508C2AF9003B712412A6038EEAA
:1042930024FBF582EF34FF124FEB7A007B2090036F
:1042A300B06005124FBB8005E0F9121BB6E4F50AB6
:1042B300F50B780A121040EEFCEFFD7AB77B031280
:1042C3001BA4740212106EE508A2E092AFEEFAEF9F
:1042D300FB0234291258A2851882851983AA82AB5E
:1042E300832274F2120A6C74FC121102EAFEEBFFD1
:1042F300750AFE750BFF121520E96005791102445A
:1043030068EE24151234316037900D0AE0C433543B
:10431300E0F8E0333354FC48C0E0EE241512336474
:10432300D0E01244831244798B09EA450960117580
:104333000AFFEE240F1234314404125046D2E0F047
:104343008E828F83122D4D6006EE2412124470EE7E
:1043530024131234317010902946E493C0E0EE2404
:1043630013123364D0E0F08E828F83E0A2E750040F
:104373005403801CEE24141234317015900342E070
:10438300C0E0EE2414123364D0E0F0900342E00462
:10439300F0EE2411123431640170169005C5E0600B
:1043A3000D90034DE0700A8E828F83E070031244F8
:1043B3006D8E828F83E064017013EE240B1241CB68
:1043C30064027009EE240F1234314440F0851882E0
:1043D300851983AC82AD83EEFAEFFB1215868A084A
:1043E3008B0974FE650A700374FFF470098E828F63
:1043F30083A3A312581DEA450960668E828F83E06A
:10440300C0E07401121333D0E0F0740212133312BC
:10441300590B740112133385820C85830D780C12AA
:104423001040EE240F123364120E25EE240E1234C4
:1044330031F50C780C121044900356120E257407B4
:10444300121333E0F9AC0AAD0B1215807407121086
:104453006EE9FE74106E700BAA08AB09121C1C8067
:10446300027E10EEF97404022D85EE2411F582EF1D
:104473001241BCE4F022A312341F79FF122432222A
:1044830012448722F08E828F83A322C082C083745A
:10449300DE1211028A828B83A3A3A3A31241C774E2
:1044A3000E121333E8F0A3E912455D740C121333B3
:1044B300124556240DF582EB123434C0E0741A12FF
:1044C3001333D0E0F012576AEB1241C47420121375
:1044D300331245562415F582EB123434C0E07408C8
:1044E300121333D0E0F0EA241CF582EB1241C474BA
:1044F300121213331245562411F582EB123434C0D1
:10450300E07409121333D0E012454A74FFF07401CA
:1045130012133374FFF0740212133374FFF0908795
:1045230066120E217404121333AC82AD8374071226
:104533001333AA82AB831213D0740412106E790062
:10454300742212106E802512454E22F08518828542
:10455300198322E8F0A3E9F0EA22123F69A3124586
:104563006522A3E0F8A3E0F92212539CD083D08202
:1045730002102074EC120A6C74EE1211028A128B70
:1045830013ECFEEDFF8909742612133312581D74C0
:1045930028121333E0F51074291213331246917461
:1045A3002B121333E0F50EA3E0F50F7508107A1EF6
:1045B3007B00121C167402121333124FC5740212BD
:1045C3001333124FED700302468A851882851983CF
:1045D300AA82AB837950124EA012539C7402121319
:1045E300331246AFA3124FC57410121333125FFA7E
:1045F3007402121333E0240B12469C7402F012135C
:10460300331246AF7402F0121333125A5E12590B6F
:1046130074021213331253B1E509F0740212133307
:10462300E0240C12469CE510F07402121333124678
:1046330099E512F0A3E513F07408121333E50CF0B7
:10464300A3E50DF0740A121333E510F0850E82858D
:104653000F83C082C083740D121333AC82AD83D039
:1046630083D0827403120F9CF97402121333AA824B
:10467300AB83121526E96401700575080080087480
:10468300021213331241B2A9087412025834E0F52E
:104693000CA3E0F50D22E0241C1246A022F8A3E0AF
:1046A3001246A7223400F988828983221253A4A3D5
:1046B300A3A3A3A32274EE120A6CEAFEEBFF8C08F9
:1046C3008D098E828F83A37408125081E060088E57
:1046D300828F83A37410F012342E60098E828F832D
:1046E300A3E02408F0EE241512343160088E828F83
:1046F30083A3E004F08E828F83A3A3A3A3A3A3E0E9
:1047030060198E828F83A3A3A3A3A3A3A3E0C333C0
:104713002402F88E828F83A3E028F0EE2411123452
:10472300316005750B0E8003750B008E828F83A39A
:10473300C082C083EE240D123431D083D082F8E0DE
:1047430028250B8C828D83F0EE2411123431600501
:10475300124BAC28F0850882850983E0C394754029
:104763000975080075090002489AE0FA7B0012599E
:10477300B9700302489AEEFAEFFB12158CEA85082A
:1047830082850983124FC6EE2402F8EF12368E1289
:1047930049941248D6F0EE24040808EF12368E121C
:1047A3004DD6A31248D6A3A3F0EE24131248BCF0AF
:1047B300EE24141248BCA3F0750A08EE2416123432
:1047C300316010EE241812589BE5082408125A9CF5
:1047D300750A1012342E6016EE241A12589B850A9D
:1047E3000CE508250C125A9C7408250AF50A8E82DA
:1047F3008F83A3A3A3A3A3A3E06059EE2407F5101B
:10480300EF3400F511851082F583E0C0E01248A370
:10481300123367D0E01248C6E0C0E01248A3123357
:1048230067D0E01248C6A31248AF12103C8510822D
:10483300851183E0C333FCE433FD850A0CE50825C9
:104843000C12581112106E851082851183E0C33348
:10485300250AF50AEE2415123431600BC0E0124824
:10486300A3123367D0E0F01233611248AF12103C49
:10487300EE240D123431FC7D00850B0A8E828F836A
:10488300A3E0F8E50828F8E5093400F9E8250AFA71
:10489300E912581412106EAA08AB097F0A020D2000
:1048A300850A0CE508250CF582E50922E0F50CA341
:1048B300E0F50D750E00780C221241B91248E0A301
:1048C300A3A322F0050A8E828F83A3A3A3A3A3A38A
:1048D300A3A322A3A3125B07A31248E022124DDA7B
:1048E300A3A32274F6120A6C8A828B83E0FC9003E2
:1048F3005312498D7402780812122EEC4508FCAD50
:1049030009EA24121249877406780812122EEC451C
:1049130008FCED4509FDEA2415F582EB12343460F9
:1049230004780180027800E4C8F9ED49FDEA241116
:10493300F582EB123434F5088809740978081212E9
:104943002EED4509FDEA2416124987740B780812E7
:10495300122EED4509FDEA2417124987740C7808D5
:1049630012122EED4509FD8A828B83A3A3A3A3A371
:10497300A312498D740A780812122EECFAED450938
:10498300FB024FF6F582EB1241BCE0F50875090016
:1049930022E085088285098322A3E0F985088285C0
:1049A30009832274EE120A6C8A0A8B0BECFEEDFF6C
:1049B300750F01E9C3940850057900024B998E8263
:1049C3008F83E9F0124DFFE96003750F00124DE389
:1049D3008E828F83124E2DEE12576BEF124E22C032
:1049E300E0EE2411123364D0E0124E1AC0E0EE243C
:1049F30012123364D0E01244837408125825A3A31F
:104A0300A3E06015124DCBEE2413F582EF1250355F
:104A13008E828F83A3E02408F08E828F83A3A3A3C7
:104A2300A3A3A3A3A3E060218E828F83A38582081F
:104A3300858309124E0EEE2415F582EF125035854B
:104A43000882850983E02408F08E828F83A3A3A3C1
:104A5300A3A3E0601A8E828F83A3858208858309CE
:104A6300124DF28E828F83A3A3A3A3A3124BBEEE98
:104A73002419124470EE241B124470A3125079E0DF
:104A83007003024B2DEE2419F8EF3400F98E828F58
:104A930083A3858208858309E0FAE50A2AF582E57E
:104AA3000B12343488828983124BBEFAE50A2AF545
:104AB30082E50B123434C0E0EE241A123364D0E0E2
:104AC300124BBE88828983E06059F890293FE493B2
:104AD300C398500575110C8008EE2419123431F572
:104AE300118E828F83A3E0F8E50A28F50CE50B12FB
:104AF3004BA212103CE511C333FCE433FD7AA57BD2
:104B03000B124B9C12106EEE241B12336474A5F02F
:104B1300A3740BF0E511C333F8850882850983E09C
:104B2300288006EE2418125CD6F08E828F83A3E0D1
:104B3300F88E828F83E0C39850030249BCA3E0FA46
:104B43008A08E50A2508F8E50B3400F9EE241DF57B
:104B530082EF125141124BCEC39AC0E0EE241712DA
:104B63003364D0E012503E602BEE2417F8EF34008C
:104B7300F9880889098882F583E024F212512224F6
:104B83000EFAA3E03400FB88828983124FC5124BCF
:104B9300ACC398F0A90F02489E121B507403223431
:104BA30000F50D750E00780C2290034EE0F91225E6
:104BB3000AE9F8850882850983E022F08508828561
:104BC3000983E004F022A3A3A3A3A3F08E828F831F
:104BD300E02274F4120A6C8A088B09EA124C63F01F
:104BE300EA1313543F124C5CA3A3A3F0EAC41313B8
:104BF300124C63A3A3F0EB124C55124C6D7409785D
:104C03000A1212C2124C53124C6C740A780A121212
:104C1300C2E50A5401C0E0EC2418F582ED123367B3
:104C2300D0E0124C72740B780A1212C2124C53A3C6
:104C3300124C6C740C780A1212C2124C53A3A3A325
:104C4300A3A3A3A3A3F0740D78081212C2022F9397
:104C5300E50A54018C828D8322540F8C828D83222A
:104C630054038C828D83A3A322A3A3A3A3A3A3F0A2
:104C73008A0A8B0B22C082C08379008A828B83A32A
:104C8300A3A3A3A3A3E090034D600FE070228A8245
:104C93008B83A3A3E07019098016E060138A828BCB
:104CA30083125393900356E06A7003A3E06B70E79B
:104CB30002456F74F0120A6C8A0A8B0B890C8C08FC
:104CC3008D09124DFF124DE3850882850983124E2B
:104CD3002DE50812576BE509124E22C0E0E50824C2
:104CE30011F582E509123367D0E0124E1AC0E012C3
:104CF3003A65123367D0E012514974081251626069
:104D030011124DCBE508241312513D125149E024F1
:104D130008F0850882850983A3A3A3A3A3A3A3A360
:104D2300E06017850882850983A3124E0AE50824EB
:104D33001512513D124BCE2408F085088285098354
:104D4300A3A3A3A3A3E06019850882850983A3AE67
:104D530082AF83124DF2850882850983124BC90401
:104D6300F0AA08AB0912159EE9F50D705685088265
:104D7300850983A3A3A3A3A3A3124DD67014E0FABA
:104D83008A0EE50A250EF8E50B12502AE50CC39AA4
:104D93008021124E0AE8240EF8E912502A90034E9D
:104DA300E0F912250A8E828F83E0F8E50CC398247C
:104DB300F2C399C0E0E5082417F582E509123367C9
:104DC300D0E0F0A90D02575AE50A2408F8E50B34A0
:104DD30000F922124DDA22E0850882850983A32295
:104DE300850A82850B83A3A3124E43E0F9EA22E0EE
:104DF300F8E50A28F582E50B125051228A828B834B
:104E030012575F12159822AE82AF83E0F8E50A28A5
:104E1300F8E50B3400F922124E56A3A3A3E02212A5
:104E230041BCE8124E4FA3A3E022A3A3A3A3A3A3D1
:104E3300A3A3A3124E4F124E43A3A3E0F9EAF82211
:104E4300E0FA850A82850B83A3A3A322F0A3E912C8
:104E53004E5622F0850A82850B83A3A3A3A322C007
:104E630082C0837AC57B0379E212239C7AC57B03D4
:104E730002456FC082C08390035602456CC082C056
:104E83008374FE121102851882851983AA82AB836B
:104E9300794B124EA012539C740202454512239C77
:104EA30085188285198322C082C083794A12239C84
:104EB30002456F74F6120A6C9003CDE0FE04F0EE27
:104EC300F91215508B09EA450970EDEE60EAF90213
:104ED3004FF674F0120A6CEAFEEBFF8C088D098919
:104EE3000A7410121333E0F50B7411121333E0F547
:104EF3000C121670EA4B7013E50C7042A90AAC0849
:104F0300AD09EEFAEFFB121688806EE50A6021EA1E
:104F13002402F582EB123434850A082508F8E434B8
:104F23000013E813F070098A828B83A3A37401F042
:104F3300E50C6045E50B70068A828B83E4F074010F
:104F4300650C7035E50B9003D47004E4F0802AE01F
:104F530004F0900CF7E0F89003D4E0C398401AE40F
:104F6300F0900359E06E7003A3E06F700CEEFAEF5C
:104F7300FB79011213F4124F7F02575A7A017B0017
:104F83009003B0E0F9121CDC22C082C08374016A72
:104F93007001EB70077A01124FB68012900CEE127B
:104FA3004FC5EA4B6005122D0F8003124F7F024558
:104FB3006F7A207B009003B0E0F9121BB02234001B
:104FC300F583EAF0A3EBF022C082C083900CF002D9
:104FD3003B6FC082C083900CF2023B6F125A6D226A
:104FE300EE240CF582EF3400F583124566E849227E
:104FF30012106E7F02020D20A2F0E4338518828521
:10500300198312501779521223A222125017794290
:105013001223A222F0AA82AB8322AA08AB0990032F
:10502300B0E0F9121B86223400F9E508241DF5824D
:10503300E5091241BCE8F0A3E9F022125829A3A321
:10504300E022A3F0EE241512504E22F582EF340035
:10505300F583E02212505B223400F583E0F8A3E0ED
:10506300F98882898322E0F812506F22A3E0F98E37
:10507300828F83A3A322F0EE24181241B922F0EE0B
:1050830024161241B92274F4120A6CEAFEEBFF7A79
:10509300007B04124F831251181250389003657429
:1050A30009F01215AA8A088B09AC08AD09EE24137E
:1050B30012336412539C12526C640170487A0F12BB
:1050C300510B60418A828B837402125122FAA3E04E
:1050D300FB8A828B83A3E0FC8A828B83A3A3E0FBFE
:1050E300EC850882850983A3A3124FC6888289832E
:1050F3001253A0124994125045FAA3E0FB794A12C5
:1051030023A212501D0234297B00121B7A8A088BBA
:1051130009EA450922900336124566900CF222F003
:10512300EE241DF8EF12512C221246A7E022125151
:1051330035223400F5837401F022F582E50912412A
:10514300BCE8F0A3E92212514D2212515122F085FD
:105153000882850983A322125151A3A3A3A3221278
:10516300515AA3A3E0221255731215FE22EE2417FF
:10517300F582EF1251351215AAEE241A1241B9EA3B
:10518300F0A3EBF02274F4120A6C74F31211028987
:1051930008EAFEEBFF7C0D7D0079008518828519F6
:1051A30083AA82AB83121B5CEE241D123364125A52
:1051B3005EA3E0F8741F58600A7901122372790024
:1051C300025263E8A2E55008740C1213337401F021
:1051D300E8A2E75008740B1213337401F0E8A2E657
:1051E300740A50081213337401F08008121333E069
:1051F30064017005EE24138003EE241512589B748A
:1052030002121333AA82AB8312238A12336112521E
:1052130071125038740A121333E064017033122D83
:1052230042703B1215B68A0A8B0BA80AA90BEE240F
:105233000B123431687003A3E06970221215AAEAD5
:10524300FCEBFD7402121333AA82AB8312526C601F
:105253000D851882851983AA82AB831213EEA908E0
:10526300740D023426EEFAEFFB122384E922E012D6
:10527300527622F8A3E0F98518828519832274F601
:10528300120A6C74F31211028A088B09ECFEEDFF0B
:105293007C0D7D007900851882851983AA82AB83F2
:1052A300125C03A3A3A3A3A3A3A3A3A312530B124D
:1052B3005314F8A2E55008740B1213337401F0E889
:1052C300A2E75008740A1213337401F0E8A2E6EE61
:1052D300500424138002241512589B7402121333B2
:1052E3001252FDA3A3E0C0E0740C121333D0E012FA
:1052F300556B1213E8740D024FF3AA82AB8312238A
:105303008A85088285098322E0125276E8F0A3E9B0
:1053130022F01241B6125A62A3E02274F7120A6C09
:1053230074E1121102EAFEEBFF8E828F831253A007
:10533300A3A3A3E0A2E050518E828F83122EA28AF0
:10534300828B83A3A3A3A3A3A3E054FE1253B88A1F
:10535300828B831253B1E0F98A828B83E0241CFA97
:10536300A3E0123DD212539C1215A4E9701B741DC5
:105373001213331253AB7011851882851983AC82D3
:10538300AD83EEFAEFFB1215EC0255DD8E828F83AF
:10539300A3A3A3A3A3A3A3A3A312341F221253A4BF
:1053A30022125A66A3A3A3221241EE640422E0242C
:1053B3001B1246A02212454EAC82AD8322E9F87936
:1053C30000740468600A740A6860057403687001F5
:1053D3000902102074F6120A6C8A828B837420F0FF
:1053E300A3A37401F012139A8A088B09AE08AF09BC
:1053F300EE4F60108E828F837401F09003A3E070F0
:1054030003125170EEFAEFFB024FF6C082C0839095
:1054130003B97401F0E9A2E350037403F0E9A2E1D4
:105423005004E0D2E2F002456F74F6120A6C790080
:105433007C008A088B097808120D66F8FF075F5411
:105443005D545D545D545D5456545A545F545354E3
:105453000C80097C0480050C80F67C089003B9E07D
:105463005C6003098003EC600109024FF674F612D5
:105473000A6C8A828B83E07012A3124FED600C8A50
:10548300828B8312539B12253480047A007B0002A3
:105493004FF674F5120A6C74F31211028A088B0921
:1054A300ECFEEDFF750A12EA450970057900025515
:1054B30064900356E065087004A3E0650970141254
:1054C30015AAEAFCEBFD1252687005750A01800308
:1054D300750A00851882851983E4F004121333E5F5
:1054E30008F0A3E50912556B12135EE960277403F4
:1054F300121333AA82AB83121C28E9640170167558
:105503000A017403121333AC82AD83125268602113
:10551300750A00801C7412650A70169003A2E06479
:1055230002700EEEFCEFFDAA08AB09121376E970C8
:10553300DFEEFCEFFDAA08AB09121676E9F8740A50
:10554300687005750A01801774A0687012EEFCEF8D
:10555300FDAA08AB09121682AA08AB09121694A970
:105563000A740D025F6B740212556F221255732277
:1055730012454EAA82AB832274F7120A6CEAFEEB41
:10558300FF8E828F83A3A3A3A3A3A3A3A3E060158A
:10559300EE241512336412340F121616E9640170E7
:1055A30004790180258E828F83A3A3A3A3A3A3A33E
:1055B300E06015EE24131233641255CFFAA3E0FB17
:1055C300121616E9640160D979008013123EBEA356
:1055D300A3A3A3A3A3A3A3A3E022741F12106E7F0C
:1055E30001020D2074F0120A6C74FD1211028A0874
:1055F3008B09ECFEEDFF890B7413121333E0F50CEA
:10560300750A0174011213337404125A966048E543
:105613000C601DEA2417F582EB125CD9125A848AB6
:10562300828B83E0D2E7F0EA2414F582EB12447311
:1056330012576AEB1250577403125FFCEE8882898B
:1056430083A3A3F0EF88828983A3A3123F68123F49
:105653006F121394E9F50AA90A740302575774ECFD
:10566300120A6C74F51211028A0A8B0B890C8C0EC8
:105673008D0F741F121333E0F50D7420121333E0F2
:10568300F510A3E0F5117E01EE121333740AF0E96D
:105693007007E50DC333240AF012583C7003025718
:1056A3003E1258517409F0A3E50CC43354E0450D80
:1056B300125863E50C702D7C008023ECC333F8E4AF
:1056C30033F9E51028F8E51139F9888289831257EF
:1056D3004B88828983123681F0A30EAF830CECC30F
:1056E300950D40D7E5082417F582E50912513112CB
:1056F30015AAE508241AF582E509124FC1740312AD
:105703001333AC82AD83AA0AAB0B121346E96019BB
:10571300E5082416F582E509125745121333A882CA
:10572300A983E5082418125031850882850983125C
:105733005FF8AA08AB09121394E9FEEEF9740B02A1
:105743005834125135740322E08E828F83F0A3AE56
:1057530082AF832212106E7F08020D20124216F9C7
:10576300EA2400E439FB22EA240BF5822274EE12C8
:105773000A6C8A0C8B0D890E8C088D097412121316
:1057830033E0F50F741312133312581D90053412BE
:105793004FED6077E50FC333F8E433F9E8240EFAED
:1057A300E93400FB121B7A8A108B11AE10AF11EE95
:1057B3004F60588E828F8374D4F0A3A3E50CF0A3BB
:1057C300E50D125825E50EF0AC08AD09EE2405FAF7
:1057D300EF125A9FEE240D123364E50FF0850A0889
:1057E300850B09750A00780812103CE50FC333FCDA
:1057F300E433FDEE240EFAEF12581412106EEEFA93
:10580300EFFB900534125A5E1225D502489EFAE545
:10581300093400FB121B50740322E0F50AA3E0F5E0
:105823000B221258292212582D22124487A3A3A314
:105833002212106E7F0C020D20851882851983AA0F
:1058430082AB831215FE8A088B09EA450922EA24F2
:105853000BF582EB125051FEA3E0FF8E828F832261
:10586300F0A3AE82AF83AC0EAD0FEEFAEFFB12588E
:10587300752212238A12587C22EE2408FEEF34008C
:10588300FF22E0FA8E828F83A3A3E022FEA3E034FB
:1058930000FF8E828F83E0221241B91258A222E0C8
:1058A300FCA3E0FD2212341F1215922274F6120A91
:1058B3006CEAFEEBFF9003BA801388828983E06E63
:1058C3007003A3E06F603A88828983A3A3124FED2C
:1058D30070E87A047B00121C168A088B09A808A9B1
:1058E30009E849601C8882898312590B9003BA1214
:1058F300539C88828983A3A3124FC59003BA125085
:1059030038024FF68A828B83EEF0A3EFF02274F411
:10591300120A6C7E009003BA80070E88828983A3E3
:10592300A3124FED70F4EEC333FAE433FB1259B90B
:10593300607E7F009003BA80248882898312589EF8
:10594300EFC333FAE433FBE5082AF582E5093BF5B7
:1059530083ECF0A3EDF00F88828983A3A3124FEDAC
:1059630070D79003AB122D7C7003A3E069780870A5
:1059730019121040EEF50A780A1210447C777D0361
:1059830079009003AB1259C4801A121040EEF50A45
:10599300780A1210447C777D0379009003AB12538D
:1059A3009C121628740312106EAA08AB09121C1C51
:1059B3001213AC023429121C168A088B09EA450912
:1059C3002212341F12162E22C082C08380128A82B2
:1059D3008B83A3A31241C79003BA125038121C1C25
:1059E3009003BA1240D770E602456F74F6120A6C40
:1059F3009003631241F39003CE125A4D1250387A3A
:105A0300CE7B0379501223A29003CE122F9BFAEF81
:105A1300FB12168E9003CE1241F3900536124FED12
:105A230060257A067B00121B7AEA4B601A8A828B06
:105A33008374D5F0A3A3E4125A7304125A84900515
:105A430036125A5E1225D5024FF6125A5122E0F849
:105A5300A3E0F9900363228E828F83125A6222128B
:105A63005A6622E0F8125A6C22A3E0F58388822258
:105A7300125A7722125A7B22F08A828B83A3A3A322
:105A830022125A77A3EEF0A3EFF022F582EF125021
:105A930051F922125169EA4B22FAE5093400FB124B
:105AA300238A22125070A3A3A3A3A3A3A322902902
:105AB30041E4932401F8E43400F97A027B00227470
:105AC300F7120A6C7E0080041260AF0E125BD340A3
:105AD300F77E00EE125AEE74FEF0A304125B03E4A9
:105AE300F00EEEC3940340EB0255E275F003A4F805
:105AF300A9F074BC28F8740339F988828983A32236
:105B0300125B0722F0888289832274F7120A6C7F62
:105B13000080010F90293EE493F8EFC3985026EFDD
:105B2300125CBF6A7003A3E06B70E812605C6C7078
